{
	"contracts/ERC6551Registry.sol": {
		"ERC6551Registry": {
			"abi": [
				{
					"inputs": [],
					"name": "InitializationFailed",
					"type": "error"
				},
				{
					"anonymous": false,
					"inputs": [
						{
							"indexed": false,
							"internalType": "address",
							"name": "account",
							"type": "address"
						},
						{
							"indexed": false,
							"internalType": "address",
							"name": "implementation",
							"type": "address"
						},
						{
							"indexed": false,
							"internalType": "uint256",
							"name": "chainId",
							"type": "uint256"
						},
						{
							"indexed": false,
							"internalType": "address",
							"name": "tokenContract",
							"type": "address"
						},
						{
							"indexed": false,
							"internalType": "uint256",
							"name": "tokenId",
							"type": "uint256"
						},
						{
							"indexed": false,
							"internalType": "uint256",
							"name": "salt",
							"type": "uint256"
						}
					],
					"name": "AccountCreated",
					"type": "event"
				},
				{
					"inputs": [
						{
							"internalType": "address",
							"name": "implementation",
							"type": "address"
						},
						{
							"internalType": "uint256",
							"name": "chainId",
							"type": "uint256"
						},
						{
							"internalType": "address",
							"name": "tokenContract",
							"type": "address"
						},
						{
							"internalType": "uint256",
							"name": "tokenId",
							"type": "uint256"
						},
						{
							"internalType": "uint256",
							"name": "salt",
							"type": "uint256"
						}
					],
					"name": "account",
					"outputs": [
						{
							"internalType": "address",
							"name": "",
							"type": "address"
						}
					],
					"stateMutability": "view",
					"type": "function"
				},
				{
					"inputs": [
						{
							"internalType": "address",
							"name": "implementation",
							"type": "address"
						},
						{
							"internalType": "uint256",
							"name": "chainId",
							"type": "uint256"
						},
						{
							"internalType": "address",
							"name": "tokenContract",
							"type": "address"
						},
						{
							"internalType": "uint256",
							"name": "tokenId",
							"type": "uint256"
						},
						{
							"internalType": "uint256",
							"name": "salt",
							"type": "uint256"
						},
						{
							"internalType": "bytes",
							"name": "initData",
							"type": "bytes"
						}
					],
					"name": "createAccount",
					"outputs": [
						{
							"internalType": "address",
							"name": "",
							"type": "address"
						}
					],
					"stateMutability": "nonpayable",
					"type": "function"
				}
			],
			"devdoc": {
				"kind": "dev",
				"methods": {},
				"version": 1
			},
			"evm": {
				"assembly": "    /* \"contracts/ERC6551Registry.sol\":154:2073  contract ERC6551Registry is IERC6551Registry {... */\n  mstore(0x40, 0x80)\n  callvalue\n  dup1\n  iszero\n  tag_1\n  jumpi\n  0x00\n  dup1\n  revert\ntag_1:\n  pop\n  dataSize(sub_0)\n  dup1\n  dataOffset(sub_0)\n  0x00\n  codecopy\n  0x00\n  return\nstop\n\nsub_0: assembly {\n        /* \"contracts/ERC6551Registry.sol\":154:2073  contract ERC6551Registry is IERC6551Registry {... */\n      mstore(0x40, 0x80)\n      callvalue\n      dup1\n      iszero\n      tag_1\n      jumpi\n      0x00\n      dup1\n      revert\n    tag_1:\n      pop\n      jumpi(tag_2, lt(calldatasize, 0x04))\n      shr(0xe0, calldataload(0x00))\n      dup1\n      0x5e9bc536\n      eq\n      tag_3\n      jumpi\n      dup1\n      0xda7323b3\n      eq\n      tag_4\n      jumpi\n    tag_2:\n      0x00\n      dup1\n      revert\n        /* \"contracts/ERC6551Registry.sol\":1173:1573  function account(... */\n    tag_3:\n      tag_5\n      0x04\n      dup1\n      calldatasize\n      sub\n      dup2\n      add\n      swap1\n      tag_6\n      swap2\n      swap1\n      tag_7\n      jump\t// in\n    tag_6:\n      tag_8\n      jump\t// in\n    tag_5:\n      mload(0x40)\n      tag_9\n      swap2\n      swap1\n      tag_10\n      jump\t// in\n    tag_9:\n      mload(0x40)\n      dup1\n      swap2\n      sub\n      swap1\n      return\n        /* \"contracts/ERC6551Registry.sol\":240:1167  function createAccount(... */\n    tag_4:\n      tag_11\n      0x04\n      dup1\n      calldatasize\n      sub\n      dup2\n      add\n      swap1\n      tag_12\n      swap2\n      swap1\n      tag_13\n      jump\t// in\n    tag_12:\n      tag_14\n      jump\t// in\n    tag_11:\n      mload(0x40)\n      tag_15\n      swap2\n      swap1\n      tag_10\n      jump\t// in\n    tag_15:\n      mload(0x40)\n      dup1\n      swap2\n      sub\n      swap1\n      return\n        /* \"contracts/ERC6551Registry.sol\":1173:1573  function account(... */\n    tag_8:\n        /* \"contracts/ERC6551Registry.sol\":1354:1361  address */\n      0x00\n        /* \"contracts/ERC6551Registry.sol\":1373:1393  bytes32 bytecodeHash */\n      dup1\n        /* \"contracts/ERC6551Registry.sol\":1419:1487  _creationCode(implementation, chainId, tokenContract, tokenId, salt) */\n      tag_17\n        /* \"contracts/ERC6551Registry.sol\":1433:1447  implementation */\n      dup8\n        /* \"contracts/ERC6551Registry.sol\":1449:1456  chainId */\n      dup8\n        /* \"contracts/ERC6551Registry.sol\":1458:1471  tokenContract */\n      dup8\n        /* \"contracts/ERC6551Registry.sol\":1473:1480  tokenId */\n      dup8\n        /* \"contracts/ERC6551Registry.sol\":1482:1486  salt */\n      dup8\n        /* \"contracts/ERC6551Registry.sol\":1419:1432  _creationCode */\n      tag_18\n        /* \"contracts/ERC6551Registry.sol\":1419:1487  _creationCode(implementation, chainId, tokenContract, tokenId, salt) */\n      jump\t// in\n    tag_17:\n        /* \"contracts/ERC6551Registry.sol\":1396:1497  keccak256(... */\n      dup1\n      mload\n      swap1\n      0x20\n      add\n      keccak256\n        /* \"contracts/ERC6551Registry.sol\":1373:1497  bytes32 bytecodeHash = keccak256(... */\n      swap1\n      pop\n        /* \"contracts/ERC6551Registry.sol\":1515:1566  Create2.computeAddress(bytes32(salt), bytecodeHash) */\n      tag_19\n        /* \"contracts/ERC6551Registry.sol\":1546:1550  salt */\n      dup4\n        /* \"contracts/ERC6551Registry.sol\":1538:1551  bytes32(salt) */\n      0x00\n      shl\n        /* \"contracts/ERC6551Registry.sol\":1553:1565  bytecodeHash */\n      dup3\n        /* \"contracts/ERC6551Registry.sol\":1515:1537  Create2.computeAddress */\n      tag_20\n        /* \"contracts/ERC6551Registry.sol\":1515:1566  Create2.computeAddress(bytes32(salt), bytecodeHash) */\n      jump\t// in\n    tag_19:\n        /* \"contracts/ERC6551Registry.sol\":1508:1566  return Create2.computeAddress(bytes32(salt), bytecodeHash) */\n      swap2\n      pop\n      pop\n        /* \"contracts/ERC6551Registry.sol\":1173:1573  function account(... */\n      swap6\n      swap5\n      pop\n      pop\n      pop\n      pop\n      pop\n      jump\t// out\n        /* \"contracts/ERC6551Registry.sol\":240:1167  function createAccount(... */\n    tag_14:\n        /* \"contracts/ERC6551Registry.sol\":455:462  address */\n      0x00\n        /* \"contracts/ERC6551Registry.sol\":474:491  bytes memory code */\n      dup1\n        /* \"contracts/ERC6551Registry.sol\":494:562  _creationCode(implementation, chainId, tokenContract, tokenId, salt) */\n      tag_22\n        /* \"contracts/ERC6551Registry.sol\":508:522  implementation */\n      dup10\n        /* \"contracts/ERC6551Registry.sol\":524:531  chainId */\n      dup10\n        /* \"contracts/ERC6551Registry.sol\":533:546  tokenContract */\n      dup10\n        /* \"contracts/ERC6551Registry.sol\":548:555  tokenId */\n      dup10\n        /* \"contracts/ERC6551Registry.sol\":557:561  salt */\n      dup10\n        /* \"contracts/ERC6551Registry.sol\":494:507  _creationCode */\n      tag_18\n        /* \"contracts/ERC6551Registry.sol\":494:562  _creationCode(implementation, chainId, tokenContract, tokenId, salt) */\n      jump\t// in\n    tag_22:\n        /* \"contracts/ERC6551Registry.sol\":474:562  bytes memory code = _creationCode(implementation, chainId, tokenContract, tokenId, salt) */\n      swap1\n      pop\n        /* \"contracts/ERC6551Registry.sol\":573:589  address _account */\n      0x00\n        /* \"contracts/ERC6551Registry.sol\":592:680  Create2.computeAddress(... */\n      tag_23\n        /* \"contracts/ERC6551Registry.sol\":636:640  salt */\n      dup7\n        /* \"contracts/ERC6551Registry.sol\":628:641  bytes32(salt) */\n      0x00\n      shl\n        /* \"contracts/ERC6551Registry.sol\":665:669  code */\n      dup4\n        /* \"contracts/ERC6551Registry.sol\":655:670  keccak256(code) */\n      dup1\n      mload\n      swap1\n      0x20\n      add\n      keccak256\n        /* \"contracts/ERC6551Registry.sol\":592:614  Create2.computeAddress */\n      tag_20\n        /* \"contracts/ERC6551Registry.sol\":592:680  Create2.computeAddress(... */\n      jump\t// in\n    tag_23:\n        /* \"contracts/ERC6551Registry.sol\":573:680  address _account = Create2.computeAddress(... */\n      swap1\n      pop\n        /* \"contracts/ERC6551Registry.sol\":719:720  0 */\n      0x00\n        /* \"contracts/ERC6551Registry.sol\":695:703  _account */\n      dup2\n        /* \"contracts/ERC6551Registry.sol\":695:715  _account.code.length */\n      0xffffffffffffffffffffffffffffffffffffffff\n      and\n      extcodesize\n        /* \"contracts/ERC6551Registry.sol\":695:720  _account.code.length != 0 */\n      eq\n        /* \"contracts/ERC6551Registry.sol\":691:737  if (_account.code.length != 0) return _account */\n      tag_24\n      jumpi\n        /* \"contracts/ERC6551Registry.sol\":729:737  _account */\n      dup1\n        /* \"contracts/ERC6551Registry.sol\":722:737  return _account */\n      swap3\n      pop\n      pop\n      pop\n      jump(tag_21)\n        /* \"contracts/ERC6551Registry.sol\":691:737  if (_account.code.length != 0) return _account */\n    tag_24:\n        /* \"contracts/ERC6551Registry.sol\":759:797  Create2.deploy(0, bytes32(salt), code) */\n      tag_25\n        /* \"contracts/ERC6551Registry.sol\":774:775  0 */\n      0x00\n        /* \"contracts/ERC6551Registry.sol\":785:789  salt */\n      dup8\n        /* \"contracts/ERC6551Registry.sol\":777:790  bytes32(salt) */\n      0x00\n      shl\n        /* \"contracts/ERC6551Registry.sol\":792:796  code */\n      dup5\n        /* \"contracts/ERC6551Registry.sol\":759:773  Create2.deploy */\n      tag_26\n        /* \"contracts/ERC6551Registry.sol\":759:797  Create2.deploy(0, bytes32(salt), code) */\n      jump\t// in\n    tag_25:\n        /* \"contracts/ERC6551Registry.sol\":748:797  _account = Create2.deploy(0, bytes32(salt), code) */\n      swap1\n      pop\n        /* \"contracts/ERC6551Registry.sol\":831:832  0 */\n      0x00\n        /* \"contracts/ERC6551Registry.sol\":812:820  initData */\n      dup6\n      dup6\n        /* \"contracts/ERC6551Registry.sol\":812:827  initData.length */\n      swap1\n      pop\n        /* \"contracts/ERC6551Registry.sol\":812:832  initData.length != 0 */\n      eq\n        /* \"contracts/ERC6551Registry.sol\":808:958  if (initData.length != 0) {... */\n      tag_27\n      jumpi\n        /* \"contracts/ERC6551Registry.sol\":849:861  bool success */\n      0x00\n        /* \"contracts/ERC6551Registry.sol\":867:875  _account */\n      dup2\n        /* \"contracts/ERC6551Registry.sol\":867:880  _account.call */\n      0xffffffffffffffffffffffffffffffffffffffff\n      and\n        /* \"contracts/ERC6551Registry.sol\":881:889  initData */\n      dup7\n      dup7\n        /* \"contracts/ERC6551Registry.sol\":867:890  _account.call(initData) */\n      mload(0x40)\n      tag_28\n      swap3\n      swap2\n      swap1\n      tag_29\n      jump\t// in\n    tag_28:\n      0x00\n      mload(0x40)\n      dup1\n      dup4\n      sub\n      dup2\n      0x00\n      dup7\n      gas\n      call\n      swap2\n      pop\n      pop\n      returndatasize\n      dup1\n      0x00\n      dup2\n      eq\n      tag_32\n      jumpi\n      mload(0x40)\n      swap2\n      pop\n      and(add(returndatasize, 0x3f), not(0x1f))\n      dup3\n      add\n      0x40\n      mstore\n      returndatasize\n      dup3\n      mstore\n      returndatasize\n      0x00\n      0x20\n      dup5\n      add\n      returndatacopy\n      jump(tag_31)\n    tag_32:\n      0x60\n      swap2\n      pop\n    tag_31:\n      pop\n        /* \"contracts/ERC6551Registry.sol\":848:890  (bool success, ) = _account.call(initData) */\n      pop\n      swap1\n      pop\n        /* \"contracts/ERC6551Registry.sol\":909:916  success */\n      dup1\n        /* \"contracts/ERC6551Registry.sol\":904:947  if (!success) revert InitializationFailed() */\n      tag_33\n      jumpi\n        /* \"contracts/ERC6551Registry.sol\":925:947  InitializationFailed() */\n      mload(0x40)\n      0x19b991a800000000000000000000000000000000000000000000000000000000\n      dup2\n      mstore\n      0x04\n      add\n      mload(0x40)\n      dup1\n      swap2\n      sub\n      swap1\n      revert\n        /* \"contracts/ERC6551Registry.sol\":904:947  if (!success) revert InitializationFailed() */\n    tag_33:\n        /* \"contracts/ERC6551Registry.sol\":834:958  {... */\n      pop\n        /* \"contracts/ERC6551Registry.sol\":808:958  if (initData.length != 0) {... */\n    tag_27:\n        /* \"contracts/ERC6551Registry.sol\":973:1134  AccountCreated(... */\n      0x07fba7bba1191da7ee1155dcfa0030701c9c9a9cc34a93b991fc6fd0c9268d8f\n        /* \"contracts/ERC6551Registry.sol\":1001:1009  _account */\n      dup2\n        /* \"contracts/ERC6551Registry.sol\":1023:1037  implementation */\n      dup12\n        /* \"contracts/ERC6551Registry.sol\":1051:1058  chainId */\n      dup12\n        /* \"contracts/ERC6551Registry.sol\":1072:1085  tokenContract */\n      dup12\n        /* \"contracts/ERC6551Registry.sol\":1099:1106  tokenId */\n      dup12\n        /* \"contracts/ERC6551Registry.sol\":1120:1124  salt */\n      dup12\n        /* \"contracts/ERC6551Registry.sol\":973:1134  AccountCreated(... */\n      mload(0x40)\n      tag_34\n      swap7\n      swap6\n      swap5\n      swap4\n      swap3\n      swap2\n      swap1\n      tag_35\n      jump\t// in\n    tag_34:\n      mload(0x40)\n      dup1\n      swap2\n      sub\n      swap1\n      log1\n        /* \"contracts/ERC6551Registry.sol\":1152:1160  _account */\n      dup1\n        /* \"contracts/ERC6551Registry.sol\":1145:1160  return _account */\n      swap3\n      pop\n      pop\n      pop\n        /* \"contracts/ERC6551Registry.sol\":240:1167  function createAccount(... */\n    tag_21:\n      swap8\n      swap7\n      pop\n      pop\n      pop\n      pop\n      pop\n      pop\n      pop\n      jump\t// out\n        /* \"contracts/ERC6551Registry.sol\":1579:2071  function _creationCode(... */\n    tag_18:\n        /* \"contracts/ERC6551Registry.sol\":1771:1783  bytes memory */\n      0x60\n        /* \"contracts/ERC6551Registry.sol\":1911:1926  implementation_ */\n      dup6\n        /* \"contracts/ERC6551Registry.sol\":2008:2013  salt_ */\n      dup3\n        /* \"contracts/ERC6551Registry.sol\":2015:2023  chainId_ */\n      dup7\n        /* \"contracts/ERC6551Registry.sol\":2025:2039  tokenContract_ */\n      dup7\n        /* \"contracts/ERC6551Registry.sol\":2041:2049  tokenId_ */\n      dup7\n        /* \"contracts/ERC6551Registry.sol\":1997:2050  abi.encode(salt_, chainId_, tokenContract_, tokenId_) */\n      add(0x20, mload(0x40))\n      tag_37\n      swap5\n      swap4\n      swap3\n      swap2\n      swap1\n      tag_38\n      jump\t// in\n    tag_37:\n      mload(0x40)\n      0x20\n      dup2\n      dup4\n      sub\n      sub\n      dup2\n      mstore\n      swap1\n      0x40\n      mstore\n        /* \"contracts/ERC6551Registry.sol\":1814:2064  abi.encodePacked(... */\n      add(0x20, mload(0x40))\n      tag_39\n      swap3\n      swap2\n      swap1\n      tag_40\n      jump\t// in\n    tag_39:\n      mload(0x40)\n      0x20\n      dup2\n      dup4\n      sub\n      sub\n      dup2\n      mstore\n      swap1\n      0x40\n      mstore\n        /* \"contracts/ERC6551Registry.sol\":1795:2064  return... */\n      swap1\n      pop\n        /* \"contracts/ERC6551Registry.sol\":1579:2071  function _creationCode(... */\n      swap6\n      swap5\n      pop\n      pop\n      pop\n      pop\n      pop\n      jump\t// out\n        /* \"@openzeppelin/contracts/utils/Create2.sol\":1769:1934  function computeAddress(bytes32 salt, bytes32 bytecodeHash) internal view returns (address) {... */\n    tag_20:\n        /* \"@openzeppelin/contracts/utils/Create2.sol\":1852:1859  address */\n      0x00\n        /* \"@openzeppelin/contracts/utils/Create2.sol\":1878:1927  computeAddress(salt, bytecodeHash, address(this)) */\n      tag_42\n        /* \"@openzeppelin/contracts/utils/Create2.sol\":1893:1897  salt */\n      dup4\n        /* \"@openzeppelin/contracts/utils/Create2.sol\":1899:1911  bytecodeHash */\n      dup4\n        /* \"@openzeppelin/contracts/utils/Create2.sol\":1921:1925  this */\n      address\n        /* \"@openzeppelin/contracts/utils/Create2.sol\":1878:1892  computeAddress */\n      tag_43\n        /* \"@openzeppelin/contracts/utils/Create2.sol\":1878:1927  computeAddress(salt, bytecodeHash, address(this)) */\n      jump\t// in\n    tag_42:\n        /* \"@openzeppelin/contracts/utils/Create2.sol\":1871:1927  return computeAddress(salt, bytecodeHash, address(this)) */\n      swap1\n      pop\n        /* \"@openzeppelin/contracts/utils/Create2.sol\":1769:1934  function computeAddress(bytes32 salt, bytes32 bytecodeHash) internal view returns (address) {... */\n      swap3\n      swap2\n      pop\n      pop\n      jump\t// out\n        /* \"@openzeppelin/contracts/utils/Create2.sol\":1081:1565  function deploy(uint256 amount, bytes32 salt, bytes memory bytecode) internal returns (address addr) {... */\n    tag_26:\n        /* \"@openzeppelin/contracts/utils/Create2.sol\":1168:1180  address addr */\n      0x00\n        /* \"@openzeppelin/contracts/utils/Create2.sol\":1225:1231  amount */\n      dup4\n        /* \"@openzeppelin/contracts/utils/Create2.sol\":1200:1221  address(this).balance */\n      selfbalance\n        /* \"@openzeppelin/contracts/utils/Create2.sol\":1200:1231  address(this).balance >= amount */\n      lt\n      iszero\n        /* \"@openzeppelin/contracts/utils/Create2.sol\":1192:1265  require(address(this).balance >= amount, \"Create2: insufficient balance\") */\n      tag_45\n      jumpi\n      mload(0x40)\n      0x08c379a000000000000000000000000000000000000000000000000000000000\n      dup2\n      mstore\n      0x04\n      add\n      tag_46\n      swap1\n      tag_47\n      jump\t// in\n    tag_46:\n      mload(0x40)\n      dup1\n      swap2\n      sub\n      swap1\n      revert\n    tag_45:\n        /* \"@openzeppelin/contracts/utils/Create2.sol\":1302:1303  0 */\n      0x00\n        /* \"@openzeppelin/contracts/utils/Create2.sol\":1283:1291  bytecode */\n      dup3\n        /* \"@openzeppelin/contracts/utils/Create2.sol\":1283:1298  bytecode.length */\n      mload\n        /* \"@openzeppelin/contracts/utils/Create2.sol\":1283:1303  bytecode.length != 0 */\n      sub\n        /* \"@openzeppelin/contracts/utils/Create2.sol\":1275:1340  require(bytecode.length != 0, \"Create2: bytecode length is zero\") */\n      tag_48\n      jumpi\n      mload(0x40)\n      0x08c379a000000000000000000000000000000000000000000000000000000000\n      dup2\n      mstore\n      0x04\n      add\n      tag_49\n      swap1\n      tag_50\n      jump\t// in\n    tag_49:\n      mload(0x40)\n      dup1\n      swap2\n      sub\n      swap1\n      revert\n    tag_48:\n        /* \"@openzeppelin/contracts/utils/Create2.sol\":1478:1482  salt */\n      dup3\n        /* \"@openzeppelin/contracts/utils/Create2.sol\":1467:1475  bytecode */\n      dup3\n        /* \"@openzeppelin/contracts/utils/Create2.sol\":1461:1476  mload(bytecode) */\n      mload\n        /* \"@openzeppelin/contracts/utils/Create2.sol\":1454:1458  0x20 */\n      0x20\n        /* \"@openzeppelin/contracts/utils/Create2.sol\":1444:1452  bytecode */\n      dup5\n        /* \"@openzeppelin/contracts/utils/Create2.sol\":1440:1459  add(bytecode, 0x20) */\n      add\n        /* \"@openzeppelin/contracts/utils/Create2.sol\":1432:1438  amount */\n      dup7\n        /* \"@openzeppelin/contracts/utils/Create2.sol\":1424:1483  create2(amount, add(bytecode, 0x20), mload(bytecode), salt) */\n      create2\n        /* \"@openzeppelin/contracts/utils/Create2.sol\":1416:1483  addr := create2(amount, add(bytecode, 0x20), mload(bytecode), salt) */\n      swap1\n      pop\n        /* \"@openzeppelin/contracts/utils/Create2.sol\":1526:1527  0 */\n      0x00\n        /* \"@openzeppelin/contracts/utils/Create2.sol\":1510:1528  addr != address(0) */\n      0xffffffffffffffffffffffffffffffffffffffff\n      and\n        /* \"@openzeppelin/contracts/utils/Create2.sol\":1510:1514  addr */\n      dup2\n        /* \"@openzeppelin/contracts/utils/Create2.sol\":1510:1528  addr != address(0) */\n      0xffffffffffffffffffffffffffffffffffffffff\n      and\n      sub\n        /* \"@openzeppelin/contracts/utils/Create2.sol\":1502:1558  require(addr != address(0), \"Create2: Failed on deploy\") */\n      tag_51\n      jumpi\n      mload(0x40)\n      0x08c379a000000000000000000000000000000000000000000000000000000000\n      dup2\n      mstore\n      0x04\n      add\n      tag_52\n      swap1\n      tag_53\n      jump\t// in\n    tag_52:\n      mload(0x40)\n      dup1\n      swap2\n      sub\n      swap1\n      revert\n    tag_51:\n        /* \"@openzeppelin/contracts/utils/Create2.sol\":1081:1565  function deploy(uint256 amount, bytes32 salt, bytes memory bytecode) internal returns (address addr) {... */\n      swap4\n      swap3\n      pop\n      pop\n      pop\n      jump\t// out\n        /* \"@openzeppelin/contracts/utils/Create2.sol\":2177:3949  function computeAddress(bytes32 salt, bytes32 bytecodeHash, address deployer) internal pure returns (address addr) {... */\n    tag_43:\n        /* \"@openzeppelin/contracts/utils/Create2.sol\":2278:2290  address addr */\n      0x00\n        /* \"@openzeppelin/contracts/utils/Create2.sol\":2385:2389  0x40 */\n      0x40\n        /* \"@openzeppelin/contracts/utils/Create2.sol\":2379:2390  mload(0x40) */\n      mload\n        /* \"@openzeppelin/contracts/utils/Create2.sol\":3604:3616  bytecodeHash */\n      dup4\n        /* \"@openzeppelin/contracts/utils/Create2.sol\":3597:3601  0x40 */\n      0x40\n        /* \"@openzeppelin/contracts/utils/Create2.sol\":3592:3595  ptr */\n      dup3\n        /* \"@openzeppelin/contracts/utils/Create2.sol\":3588:3602  add(ptr, 0x40) */\n      add\n        /* \"@openzeppelin/contracts/utils/Create2.sol\":3581:3617  mstore(add(ptr, 0x40), bytecodeHash) */\n      mstore\n        /* \"@openzeppelin/contracts/utils/Create2.sol\":3653:3657  salt */\n      dup5\n        /* \"@openzeppelin/contracts/utils/Create2.sol\":3646:3650  0x20 */\n      0x20\n        /* \"@openzeppelin/contracts/utils/Create2.sol\":3641:3644  ptr */\n      dup3\n        /* \"@openzeppelin/contracts/utils/Create2.sol\":3637:3651  add(ptr, 0x20) */\n      add\n        /* \"@openzeppelin/contracts/utils/Create2.sol\":3630:3658  mstore(add(ptr, 0x20), salt) */\n      mstore\n        /* \"@openzeppelin/contracts/utils/Create2.sol\":3683:3691  deployer */\n      dup3\n        /* \"@openzeppelin/contracts/utils/Create2.sol\":3678:3681  ptr */\n      dup2\n        /* \"@openzeppelin/contracts/utils/Create2.sol\":3671:3692  mstore(ptr, deployer) */\n      mstore\n        /* \"@openzeppelin/contracts/utils/Create2.sol\":3776:3780  0x0b */\n      0x0b\n        /* \"@openzeppelin/contracts/utils/Create2.sol\":3771:3774  ptr */\n      dup2\n        /* \"@openzeppelin/contracts/utils/Create2.sol\":3767:3781  add(ptr, 0x0b) */\n      add\n        /* \"@openzeppelin/contracts/utils/Create2.sol\":3887:3891  0xff */\n      0xff\n        /* \"@openzeppelin/contracts/utils/Create2.sol\":3880:3885  start */\n      dup2\n        /* \"@openzeppelin/contracts/utils/Create2.sol\":3872:3892  mstore8(start, 0xff) */\n      mstore8\n        /* \"@openzeppelin/contracts/utils/Create2.sol\":3930:3932  85 */\n      0x55\n        /* \"@openzeppelin/contracts/utils/Create2.sol\":3923:3928  start */\n      dup2\n        /* \"@openzeppelin/contracts/utils/Create2.sol\":3913:3933  keccak256(start, 85) */\n      keccak256\n        /* \"@openzeppelin/contracts/utils/Create2.sol\":3905:3933  addr := keccak256(start, 85) */\n      swap3\n      pop\n        /* \"@openzeppelin/contracts/utils/Create2.sol\":2354:3943  {... */\n      pop\n      pop\n        /* \"@openzeppelin/contracts/utils/Create2.sol\":2177:3949  function computeAddress(bytes32 salt, bytes32 bytecodeHash, address deployer) internal pure returns (address addr) {... */\n      swap4\n      swap3\n      pop\n      pop\n      pop\n      jump\t// out\n        /* \"#utility.yul\":88:205   */\n    tag_56:\n        /* \"#utility.yul\":197:198   */\n      0x00\n        /* \"#utility.yul\":194:195   */\n      dup1\n        /* \"#utility.yul\":187:199   */\n      revert\n        /* \"#utility.yul\":211:328   */\n    tag_57:\n        /* \"#utility.yul\":320:321   */\n      0x00\n        /* \"#utility.yul\":317:318   */\n      dup1\n        /* \"#utility.yul\":310:322   */\n      revert\n        /* \"#utility.yul\":334:460   */\n    tag_58:\n        /* \"#utility.yul\":371:378   */\n      0x00\n        /* \"#utility.yul\":411:453   */\n      0xffffffffffffffffffffffffffffffffffffffff\n        /* \"#utility.yul\":404:409   */\n      dup3\n        /* \"#utility.yul\":400:454   */\n      and\n        /* \"#utility.yul\":389:454   */\n      swap1\n      pop\n        /* \"#utility.yul\":334:460   */\n      swap2\n      swap1\n      pop\n      jump\t// out\n        /* \"#utility.yul\":466:562   */\n    tag_59:\n        /* \"#utility.yul\":503:510   */\n      0x00\n        /* \"#utility.yul\":532:556   */\n      tag_99\n        /* \"#utility.yul\":550:555   */\n      dup3\n        /* \"#utility.yul\":532:556   */\n      tag_58\n      jump\t// in\n    tag_99:\n        /* \"#utility.yul\":521:556   */\n      swap1\n      pop\n        /* \"#utility.yul\":466:562   */\n      swap2\n      swap1\n      pop\n      jump\t// out\n        /* \"#utility.yul\":568:690   */\n    tag_60:\n        /* \"#utility.yul\":641:665   */\n      tag_101\n        /* \"#utility.yul\":659:664   */\n      dup2\n        /* \"#utility.yul\":641:665   */\n      tag_59\n      jump\t// in\n    tag_101:\n        /* \"#utility.yul\":634:639   */\n      dup2\n        /* \"#utility.yul\":631:666   */\n      eq\n        /* \"#utility.yul\":621:684   */\n      tag_102\n      jumpi\n        /* \"#utility.yul\":680:681   */\n      0x00\n        /* \"#utility.yul\":677:678   */\n      dup1\n        /* \"#utility.yul\":670:682   */\n      revert\n        /* \"#utility.yul\":621:684   */\n    tag_102:\n        /* \"#utility.yul\":568:690   */\n      pop\n      jump\t// out\n        /* \"#utility.yul\":696:835   */\n    tag_61:\n        /* \"#utility.yul\":742:747   */\n      0x00\n        /* \"#utility.yul\":780:786   */\n      dup2\n        /* \"#utility.yul\":767:787   */\n      calldataload\n        /* \"#utility.yul\":758:787   */\n      swap1\n      pop\n        /* \"#utility.yul\":796:829   */\n      tag_104\n        /* \"#utility.yul\":823:828   */\n      dup2\n        /* \"#utility.yul\":796:829   */\n      tag_60\n      jump\t// in\n    tag_104:\n        /* \"#utility.yul\":696:835   */\n      swap3\n      swap2\n      pop\n      pop\n      jump\t// out\n        /* \"#utility.yul\":841:918   */\n    tag_62:\n        /* \"#utility.yul\":878:885   */\n      0x00\n        /* \"#utility.yul\":907:912   */\n      dup2\n        /* \"#utility.yul\":896:912   */\n      swap1\n      pop\n        /* \"#utility.yul\":841:918   */\n      swap2\n      swap1\n      pop\n      jump\t// out\n        /* \"#utility.yul\":924:1046   */\n    tag_63:\n        /* \"#utility.yul\":997:1021   */\n      tag_107\n        /* \"#utility.yul\":1015:1020   */\n      dup2\n        /* \"#utility.yul\":997:1021   */\n      tag_62\n      jump\t// in\n    tag_107:\n        /* \"#utility.yul\":990:995   */\n      dup2\n        /* \"#utility.yul\":987:1022   */\n      eq\n        /* \"#utility.yul\":977:1040   */\n      tag_108\n      jumpi\n        /* \"#utility.yul\":1036:1037   */\n      0x00\n        /* \"#utility.yul\":1033:1034   */\n      dup1\n        /* \"#utility.yul\":1026:1038   */\n      revert\n        /* \"#utility.yul\":977:1040   */\n    tag_108:\n        /* \"#utility.yul\":924:1046   */\n      pop\n      jump\t// out\n        /* \"#utility.yul\":1052:1191   */\n    tag_64:\n        /* \"#utility.yul\":1098:1103   */\n      0x00\n        /* \"#utility.yul\":1136:1142   */\n      dup2\n        /* \"#utility.yul\":1123:1143   */\n      calldataload\n        /* \"#utility.yul\":1114:1143   */\n      swap1\n      pop\n        /* \"#utility.yul\":1152:1185   */\n      tag_110\n        /* \"#utility.yul\":1179:1184   */\n      dup2\n        /* \"#utility.yul\":1152:1185   */\n      tag_63\n      jump\t// in\n    tag_110:\n        /* \"#utility.yul\":1052:1191   */\n      swap3\n      swap2\n      pop\n      pop\n      jump\t// out\n        /* \"#utility.yul\":1197:2108   */\n    tag_7:\n        /* \"#utility.yul\":1292:1298   */\n      0x00\n        /* \"#utility.yul\":1300:1306   */\n      dup1\n        /* \"#utility.yul\":1308:1314   */\n      0x00\n        /* \"#utility.yul\":1316:1322   */\n      dup1\n        /* \"#utility.yul\":1324:1330   */\n      0x00\n        /* \"#utility.yul\":1373:1376   */\n      0xa0\n        /* \"#utility.yul\":1361:1370   */\n      dup7\n        /* \"#utility.yul\":1352:1359   */\n      dup9\n        /* \"#utility.yul\":1348:1371   */\n      sub\n        /* \"#utility.yul\":1344:1377   */\n      slt\n        /* \"#utility.yul\":1341:1461   */\n      iszero\n      tag_112\n      jumpi\n        /* \"#utility.yul\":1380:1459   */\n      tag_113\n      tag_56\n      jump\t// in\n    tag_113:\n        /* \"#utility.yul\":1341:1461   */\n    tag_112:\n        /* \"#utility.yul\":1500:1501   */\n      0x00\n        /* \"#utility.yul\":1525:1578   */\n      tag_114\n        /* \"#utility.yul\":1570:1577   */\n      dup9\n        /* \"#utility.yul\":1561:1567   */\n      dup3\n        /* \"#utility.yul\":1550:1559   */\n      dup10\n        /* \"#utility.yul\":1546:1568   */\n      add\n        /* \"#utility.yul\":1525:1578   */\n      tag_61\n      jump\t// in\n    tag_114:\n        /* \"#utility.yul\":1515:1578   */\n      swap6\n      pop\n        /* \"#utility.yul\":1471:1588   */\n      pop\n        /* \"#utility.yul\":1627:1629   */\n      0x20\n        /* \"#utility.yul\":1653:1706   */\n      tag_115\n        /* \"#utility.yul\":1698:1705   */\n      dup9\n        /* \"#utility.yul\":1689:1695   */\n      dup3\n        /* \"#utility.yul\":1678:1687   */\n      dup10\n        /* \"#utility.yul\":1674:1696   */\n      add\n        /* \"#utility.yul\":1653:1706   */\n      tag_64\n      jump\t// in\n    tag_115:\n        /* \"#utility.yul\":1643:1706   */\n      swap5\n      pop\n        /* \"#utility.yul\":1598:1716   */\n      pop\n        /* \"#utility.yul\":1755:1757   */\n      0x40\n        /* \"#utility.yul\":1781:1834   */\n      tag_116\n        /* \"#utility.yul\":1826:1833   */\n      dup9\n        /* \"#utility.yul\":1817:1823   */\n      dup3\n        /* \"#utility.yul\":1806:1815   */\n      dup10\n        /* \"#utility.yul\":1802:1824   */\n      add\n        /* \"#utility.yul\":1781:1834   */\n      tag_61\n      jump\t// in\n    tag_116:\n        /* \"#utility.yul\":1771:1834   */\n      swap4\n      pop\n        /* \"#utility.yul\":1726:1844   */\n      pop\n        /* \"#utility.yul\":1883:1885   */\n      0x60\n        /* \"#utility.yul\":1909:1962   */\n      tag_117\n        /* \"#utility.yul\":1954:1961   */\n      dup9\n        /* \"#utility.yul\":1945:1951   */\n      dup3\n        /* \"#utility.yul\":1934:1943   */\n      dup10\n        /* \"#utility.yul\":1930:1952   */\n      add\n        /* \"#utility.yul\":1909:1962   */\n      tag_64\n      jump\t// in\n    tag_117:\n        /* \"#utility.yul\":1899:1962   */\n      swap3\n      pop\n        /* \"#utility.yul\":1854:1972   */\n      pop\n        /* \"#utility.yul\":2011:2014   */\n      0x80\n        /* \"#utility.yul\":2038:2091   */\n      tag_118\n        /* \"#utility.yul\":2083:2090   */\n      dup9\n        /* \"#utility.yul\":2074:2080   */\n      dup3\n        /* \"#utility.yul\":2063:2072   */\n      dup10\n        /* \"#utility.yul\":2059:2081   */\n      add\n        /* \"#utility.yul\":2038:2091   */\n      tag_64\n      jump\t// in\n    tag_118:\n        /* \"#utility.yul\":2028:2091   */\n      swap2\n      pop\n        /* \"#utility.yul\":1982:2101   */\n      pop\n        /* \"#utility.yul\":1197:2108   */\n      swap3\n      swap6\n      pop\n      swap3\n      swap6\n      swap1\n      swap4\n      pop\n      jump\t// out\n        /* \"#utility.yul\":2114:2232   */\n    tag_65:\n        /* \"#utility.yul\":2201:2225   */\n      tag_120\n        /* \"#utility.yul\":2219:2224   */\n      dup2\n        /* \"#utility.yul\":2201:2225   */\n      tag_59\n      jump\t// in\n    tag_120:\n        /* \"#utility.yul\":2196:2199   */\n      dup3\n        /* \"#utility.yul\":2189:2226   */\n      mstore\n        /* \"#utility.yul\":2114:2232   */\n      pop\n      pop\n      jump\t// out\n        /* \"#utility.yul\":2238:2460   */\n    tag_10:\n        /* \"#utility.yul\":2331:2335   */\n      0x00\n        /* \"#utility.yul\":2369:2371   */\n      0x20\n        /* \"#utility.yul\":2358:2367   */\n      dup3\n        /* \"#utility.yul\":2354:2372   */\n      add\n        /* \"#utility.yul\":2346:2372   */\n      swap1\n      pop\n        /* \"#utility.yul\":2382:2453   */\n      tag_122\n        /* \"#utility.yul\":2450:2451   */\n      0x00\n        /* \"#utility.yul\":2439:2448   */\n      dup4\n        /* \"#utility.yul\":2435:2452   */\n      add\n        /* \"#utility.yul\":2426:2432   */\n      dup5\n        /* \"#utility.yul\":2382:2453   */\n      tag_65\n      jump\t// in\n    tag_122:\n        /* \"#utility.yul\":2238:2460   */\n      swap3\n      swap2\n      pop\n      pop\n      jump\t// out\n        /* \"#utility.yul\":2466:2583   */\n    tag_66:\n        /* \"#utility.yul\":2575:2576   */\n      0x00\n        /* \"#utility.yul\":2572:2573   */\n      dup1\n        /* \"#utility.yul\":2565:2577   */\n      revert\n        /* \"#utility.yul\":2589:2706   */\n    tag_67:\n        /* \"#utility.yul\":2698:2699   */\n      0x00\n        /* \"#utility.yul\":2695:2696   */\n      dup1\n        /* \"#utility.yul\":2688:2700   */\n      revert\n        /* \"#utility.yul\":2712:2829   */\n    tag_68:\n        /* \"#utility.yul\":2821:2822   */\n      0x00\n        /* \"#utility.yul\":2818:2819   */\n      dup1\n        /* \"#utility.yul\":2811:2823   */\n      revert\n        /* \"#utility.yul\":2848:3400   */\n    tag_69:\n        /* \"#utility.yul\":2905:2913   */\n      0x00\n        /* \"#utility.yul\":2915:2921   */\n      dup1\n        /* \"#utility.yul\":2965:2968   */\n      dup4\n        /* \"#utility.yul\":2958:2962   */\n      0x1f\n        /* \"#utility.yul\":2950:2956   */\n      dup5\n        /* \"#utility.yul\":2946:2963   */\n      add\n        /* \"#utility.yul\":2942:2969   */\n      slt\n        /* \"#utility.yul\":2932:3054   */\n      tag_127\n      jumpi\n        /* \"#utility.yul\":2973:3052   */\n      tag_128\n      tag_66\n      jump\t// in\n    tag_128:\n        /* \"#utility.yul\":2932:3054   */\n    tag_127:\n        /* \"#utility.yul\":3086:3092   */\n      dup3\n        /* \"#utility.yul\":3073:3093   */\n      calldataload\n        /* \"#utility.yul\":3063:3093   */\n      swap1\n      pop\n        /* \"#utility.yul\":3116:3134   */\n      0xffffffffffffffff\n        /* \"#utility.yul\":3108:3114   */\n      dup2\n        /* \"#utility.yul\":3105:3135   */\n      gt\n        /* \"#utility.yul\":3102:3219   */\n      iszero\n      tag_129\n      jumpi\n        /* \"#utility.yul\":3138:3217   */\n      tag_130\n      tag_67\n      jump\t// in\n    tag_130:\n        /* \"#utility.yul\":3102:3219   */\n    tag_129:\n        /* \"#utility.yul\":3252:3256   */\n      0x20\n        /* \"#utility.yul\":3244:3250   */\n      dup4\n        /* \"#utility.yul\":3240:3257   */\n      add\n        /* \"#utility.yul\":3228:3257   */\n      swap2\n      pop\n        /* \"#utility.yul\":3306:3309   */\n      dup4\n        /* \"#utility.yul\":3298:3302   */\n      0x01\n        /* \"#utility.yul\":3290:3296   */\n      dup3\n        /* \"#utility.yul\":3286:3303   */\n      mul\n        /* \"#utility.yul\":3276:3284   */\n      dup4\n        /* \"#utility.yul\":3272:3304   */\n      add\n        /* \"#utility.yul\":3269:3310   */\n      gt\n        /* \"#utility.yul\":3266:3394   */\n      iszero\n      tag_131\n      jumpi\n        /* \"#utility.yul\":3313:3392   */\n      tag_132\n      tag_68\n      jump\t// in\n    tag_132:\n        /* \"#utility.yul\":3266:3394   */\n    tag_131:\n        /* \"#utility.yul\":2848:3400   */\n      swap3\n      pop\n      swap3\n      swap1\n      pop\n      jump\t// out\n        /* \"#utility.yul\":3406:4661   */\n    tag_13:\n        /* \"#utility.yul\":3521:3527   */\n      0x00\n        /* \"#utility.yul\":3529:3535   */\n      dup1\n        /* \"#utility.yul\":3537:3543   */\n      0x00\n        /* \"#utility.yul\":3545:3551   */\n      dup1\n        /* \"#utility.yul\":3553:3559   */\n      0x00\n        /* \"#utility.yul\":3561:3567   */\n      dup1\n        /* \"#utility.yul\":3569:3575   */\n      0x00\n        /* \"#utility.yul\":3618:3621   */\n      0xc0\n        /* \"#utility.yul\":3606:3615   */\n      dup9\n        /* \"#utility.yul\":3597:3604   */\n      dup11\n        /* \"#utility.yul\":3593:3616   */\n      sub\n        /* \"#utility.yul\":3589:3622   */\n      slt\n        /* \"#utility.yul\":3586:3706   */\n      iszero\n      tag_134\n      jumpi\n        /* \"#utility.yul\":3625:3704   */\n      tag_135\n      tag_56\n      jump\t// in\n    tag_135:\n        /* \"#utility.yul\":3586:3706   */\n    tag_134:\n        /* \"#utility.yul\":3745:3746   */\n      0x00\n        /* \"#utility.yul\":3770:3823   */\n      tag_136\n        /* \"#utility.yul\":3815:3822   */\n      dup11\n        /* \"#utility.yul\":3806:3812   */\n      dup3\n        /* \"#utility.yul\":3795:3804   */\n      dup12\n        /* \"#utility.yul\":3791:3813   */\n      add\n        /* \"#utility.yul\":3770:3823   */\n      tag_61\n      jump\t// in\n    tag_136:\n        /* \"#utility.yul\":3760:3823   */\n      swap8\n      pop\n        /* \"#utility.yul\":3716:3833   */\n      pop\n        /* \"#utility.yul\":3872:3874   */\n      0x20\n        /* \"#utility.yul\":3898:3951   */\n      tag_137\n        /* \"#utility.yul\":3943:3950   */\n      dup11\n        /* \"#utility.yul\":3934:3940   */\n      dup3\n        /* \"#utility.yul\":3923:3932   */\n      dup12\n        /* \"#utility.yul\":3919:3941   */\n      add\n        /* \"#utility.yul\":3898:3951   */\n      tag_64\n      jump\t// in\n    tag_137:\n        /* \"#utility.yul\":3888:3951   */\n      swap7\n      pop\n        /* \"#utility.yul\":3843:3961   */\n      pop\n        /* \"#utility.yul\":4000:4002   */\n      0x40\n        /* \"#utility.yul\":4026:4079   */\n      tag_138\n        /* \"#utility.yul\":4071:4078   */\n      dup11\n        /* \"#utility.yul\":4062:4068   */\n      dup3\n        /* \"#utility.yul\":4051:4060   */\n      dup12\n        /* \"#utility.yul\":4047:4069   */\n      add\n        /* \"#utility.yul\":4026:4079   */\n      tag_61\n      jump\t// in\n    tag_138:\n        /* \"#utility.yul\":4016:4079   */\n      swap6\n      pop\n        /* \"#utility.yul\":3971:4089   */\n      pop\n        /* \"#utility.yul\":4128:4130   */\n      0x60\n        /* \"#utility.yul\":4154:4207   */\n      tag_139\n        /* \"#utility.yul\":4199:4206   */\n      dup11\n        /* \"#utility.yul\":4190:4196   */\n      dup3\n        /* \"#utility.yul\":4179:4188   */\n      dup12\n        /* \"#utility.yul\":4175:4197   */\n      add\n        /* \"#utility.yul\":4154:4207   */\n      tag_64\n      jump\t// in\n    tag_139:\n        /* \"#utility.yul\":4144:4207   */\n      swap5\n      pop\n        /* \"#utility.yul\":4099:4217   */\n      pop\n        /* \"#utility.yul\":4256:4259   */\n      0x80\n        /* \"#utility.yul\":4283:4336   */\n      tag_140\n        /* \"#utility.yul\":4328:4335   */\n      dup11\n        /* \"#utility.yul\":4319:4325   */\n      dup3\n        /* \"#utility.yul\":4308:4317   */\n      dup12\n        /* \"#utility.yul\":4304:4326   */\n      add\n        /* \"#utility.yul\":4283:4336   */\n      tag_64\n      jump\t// in\n    tag_140:\n        /* \"#utility.yul\":4273:4336   */\n      swap4\n      pop\n        /* \"#utility.yul\":4227:4346   */\n      pop\n        /* \"#utility.yul\":4413:4416   */\n      0xa0\n        /* \"#utility.yul\":4402:4411   */\n      dup9\n        /* \"#utility.yul\":4398:4417   */\n      add\n        /* \"#utility.yul\":4385:4418   */\n      calldataload\n        /* \"#utility.yul\":4445:4463   */\n      0xffffffffffffffff\n        /* \"#utility.yul\":4437:4443   */\n      dup2\n        /* \"#utility.yul\":4434:4464   */\n      gt\n        /* \"#utility.yul\":4431:4548   */\n      iszero\n      tag_141\n      jumpi\n        /* \"#utility.yul\":4467:4546   */\n      tag_142\n      tag_57\n      jump\t// in\n    tag_142:\n        /* \"#utility.yul\":4431:4548   */\n    tag_141:\n        /* \"#utility.yul\":4580:4644   */\n      tag_143\n        /* \"#utility.yul\":4636:4643   */\n      dup11\n        /* \"#utility.yul\":4627:4633   */\n      dup3\n        /* \"#utility.yul\":4616:4625   */\n      dup12\n        /* \"#utility.yul\":4612:4634   */\n      add\n        /* \"#utility.yul\":4580:4644   */\n      tag_69\n      jump\t// in\n    tag_143:\n        /* \"#utility.yul\":4562:4644   */\n      swap3\n      pop\n      swap3\n      pop\n        /* \"#utility.yul\":4356:4654   */\n      pop\n        /* \"#utility.yul\":3406:4661   */\n      swap3\n      swap6\n      swap9\n      swap2\n      swap5\n      swap8\n      pop\n      swap3\n      swap6\n      pop\n      jump\t// out\n        /* \"#utility.yul\":4667:4814   */\n    tag_70:\n        /* \"#utility.yul\":4768:4779   */\n      0x00\n        /* \"#utility.yul\":4805:4808   */\n      dup2\n        /* \"#utility.yul\":4790:4808   */\n      swap1\n      pop\n        /* \"#utility.yul\":4667:4814   */\n      swap3\n      swap2\n      pop\n      pop\n      jump\t// out\n        /* \"#utility.yul\":4820:4966   */\n    tag_71:\n        /* \"#utility.yul\":4917:4923   */\n      dup3\n        /* \"#utility.yul\":4912:4915   */\n      dup2\n        /* \"#utility.yul\":4907:4910   */\n      dup4\n        /* \"#utility.yul\":4894:4924   */\n      calldatacopy\n        /* \"#utility.yul\":4958:4959   */\n      0x00\n        /* \"#utility.yul\":4949:4955   */\n      dup4\n        /* \"#utility.yul\":4944:4947   */\n      dup4\n        /* \"#utility.yul\":4940:4956   */\n      add\n        /* \"#utility.yul\":4933:4960   */\n      mstore\n        /* \"#utility.yul\":4820:4966   */\n      pop\n      pop\n      pop\n      jump\t// out\n        /* \"#utility.yul\":4994:5321   */\n    tag_72:\n        /* \"#utility.yul\":5108:5111   */\n      0x00\n        /* \"#utility.yul\":5129:5217   */\n      tag_147\n        /* \"#utility.yul\":5210:5216   */\n      dup4\n        /* \"#utility.yul\":5205:5208   */\n      dup6\n        /* \"#utility.yul\":5129:5217   */\n      tag_70\n      jump\t// in\n    tag_147:\n        /* \"#utility.yul\":5122:5217   */\n      swap4\n      pop\n        /* \"#utility.yul\":5227:5283   */\n      tag_148\n        /* \"#utility.yul\":5276:5282   */\n      dup4\n        /* \"#utility.yul\":5271:5274   */\n      dup6\n        /* \"#utility.yul\":5264:5269   */\n      dup5\n        /* \"#utility.yul\":5227:5283   */\n      tag_71\n      jump\t// in\n    tag_148:\n        /* \"#utility.yul\":5308:5314   */\n      dup3\n        /* \"#utility.yul\":5303:5306   */\n      dup5\n        /* \"#utility.yul\":5299:5315   */\n      add\n        /* \"#utility.yul\":5292:5315   */\n      swap1\n      pop\n        /* \"#utility.yul\":4994:5321   */\n      swap4\n      swap3\n      pop\n      pop\n      pop\n      jump\t// out\n        /* \"#utility.yul\":5327:5618   */\n    tag_29:\n        /* \"#utility.yul\":5467:5470   */\n      0x00\n        /* \"#utility.yul\":5489:5592   */\n      tag_150\n        /* \"#utility.yul\":5588:5591   */\n      dup3\n        /* \"#utility.yul\":5579:5585   */\n      dup5\n        /* \"#utility.yul\":5571:5577   */\n      dup7\n        /* \"#utility.yul\":5489:5592   */\n      tag_72\n      jump\t// in\n    tag_150:\n        /* \"#utility.yul\":5482:5592   */\n      swap2\n      pop\n        /* \"#utility.yul\":5609:5612   */\n      dup2\n        /* \"#utility.yul\":5602:5612   */\n      swap1\n      pop\n        /* \"#utility.yul\":5327:5618   */\n      swap4\n      swap3\n      pop\n      pop\n      pop\n      jump\t// out\n        /* \"#utility.yul\":5624:5742   */\n    tag_73:\n        /* \"#utility.yul\":5711:5735   */\n      tag_152\n        /* \"#utility.yul\":5729:5734   */\n      dup2\n        /* \"#utility.yul\":5711:5735   */\n      tag_62\n      jump\t// in\n    tag_152:\n        /* \"#utility.yul\":5706:5709   */\n      dup3\n        /* \"#utility.yul\":5699:5736   */\n      mstore\n        /* \"#utility.yul\":5624:5742   */\n      pop\n      pop\n      jump\t// out\n        /* \"#utility.yul\":5748:6523   */\n    tag_35:\n        /* \"#utility.yul\":5981:5985   */\n      0x00\n        /* \"#utility.yul\":6019:6022   */\n      0xc0\n        /* \"#utility.yul\":6008:6017   */\n      dup3\n        /* \"#utility.yul\":6004:6023   */\n      add\n        /* \"#utility.yul\":5996:6023   */\n      swap1\n      pop\n        /* \"#utility.yul\":6033:6104   */\n      tag_154\n        /* \"#utility.yul\":6101:6102   */\n      0x00\n        /* \"#utility.yul\":6090:6099   */\n      dup4\n        /* \"#utility.yul\":6086:6103   */\n      add\n        /* \"#utility.yul\":6077:6083   */\n      dup10\n        /* \"#utility.yul\":6033:6104   */\n      tag_65\n      jump\t// in\n    tag_154:\n        /* \"#utility.yul\":6114:6186   */\n      tag_155\n        /* \"#utility.yul\":6182:6184   */\n      0x20\n        /* \"#utility.yul\":6171:6180   */\n      dup4\n        /* \"#utility.yul\":6167:6185   */\n      add\n        /* \"#utility.yul\":6158:6164   */\n      dup9\n        /* \"#utility.yul\":6114:6186   */\n      tag_65\n      jump\t// in\n    tag_155:\n        /* \"#utility.yul\":6196:6268   */\n      tag_156\n        /* \"#utility.yul\":6264:6266   */\n      0x40\n        /* \"#utility.yul\":6253:6262   */\n      dup4\n        /* \"#utility.yul\":6249:6267   */\n      add\n        /* \"#utility.yul\":6240:6246   */\n      dup8\n        /* \"#utility.yul\":6196:6268   */\n      tag_73\n      jump\t// in\n    tag_156:\n        /* \"#utility.yul\":6278:6350   */\n      tag_157\n        /* \"#utility.yul\":6346:6348   */\n      0x60\n        /* \"#utility.yul\":6335:6344   */\n      dup4\n        /* \"#utility.yul\":6331:6349   */\n      add\n        /* \"#utility.yul\":6322:6328   */\n      dup7\n        /* \"#utility.yul\":6278:6350   */\n      tag_65\n      jump\t// in\n    tag_157:\n        /* \"#utility.yul\":6360:6433   */\n      tag_158\n        /* \"#utility.yul\":6428:6431   */\n      0x80\n        /* \"#utility.yul\":6417:6426   */\n      dup4\n        /* \"#utility.yul\":6413:6432   */\n      add\n        /* \"#utility.yul\":6404:6410   */\n      dup6\n        /* \"#utility.yul\":6360:6433   */\n      tag_73\n      jump\t// in\n    tag_158:\n        /* \"#utility.yul\":6443:6516   */\n      tag_159\n        /* \"#utility.yul\":6511:6514   */\n      0xa0\n        /* \"#utility.yul\":6500:6509   */\n      dup4\n        /* \"#utility.yul\":6496:6515   */\n      add\n        /* \"#utility.yul\":6487:6493   */\n      dup5\n        /* \"#utility.yul\":6443:6516   */\n      tag_73\n      jump\t// in\n    tag_159:\n        /* \"#utility.yul\":5748:6523   */\n      swap8\n      swap7\n      pop\n      pop\n      pop\n      pop\n      pop\n      pop\n      pop\n      jump\t// out\n        /* \"#utility.yul\":6529:7082   */\n    tag_38:\n        /* \"#utility.yul\":6706:6710   */\n      0x00\n        /* \"#utility.yul\":6744:6747   */\n      0x80\n        /* \"#utility.yul\":6733:6742   */\n      dup3\n        /* \"#utility.yul\":6729:6748   */\n      add\n        /* \"#utility.yul\":6721:6748   */\n      swap1\n      pop\n        /* \"#utility.yul\":6758:6829   */\n      tag_161\n        /* \"#utility.yul\":6826:6827   */\n      0x00\n        /* \"#utility.yul\":6815:6824   */\n      dup4\n        /* \"#utility.yul\":6811:6828   */\n      add\n        /* \"#utility.yul\":6802:6808   */\n      dup8\n        /* \"#utility.yul\":6758:6829   */\n      tag_73\n      jump\t// in\n    tag_161:\n        /* \"#utility.yul\":6839:6911   */\n      tag_162\n        /* \"#utility.yul\":6907:6909   */\n      0x20\n        /* \"#utility.yul\":6896:6905   */\n      dup4\n        /* \"#utility.yul\":6892:6910   */\n      add\n        /* \"#utility.yul\":6883:6889   */\n      dup7\n        /* \"#utility.yul\":6839:6911   */\n      tag_73\n      jump\t// in\n    tag_162:\n        /* \"#utility.yul\":6921:6993   */\n      tag_163\n        /* \"#utility.yul\":6989:6991   */\n      0x40\n        /* \"#utility.yul\":6978:6987   */\n      dup4\n        /* \"#utility.yul\":6974:6992   */\n      add\n        /* \"#utility.yul\":6965:6971   */\n      dup6\n        /* \"#utility.yul\":6921:6993   */\n      tag_65\n      jump\t// in\n    tag_163:\n        /* \"#utility.yul\":7003:7075   */\n      tag_164\n        /* \"#utility.yul\":7071:7073   */\n      0x60\n        /* \"#utility.yul\":7060:7069   */\n      dup4\n        /* \"#utility.yul\":7056:7074   */\n      add\n        /* \"#utility.yul\":7047:7053   */\n      dup5\n        /* \"#utility.yul\":7003:7075   */\n      tag_73\n      jump\t// in\n    tag_164:\n        /* \"#utility.yul\":6529:7082   */\n      swap6\n      swap5\n      pop\n      pop\n      pop\n      pop\n      pop\n      jump\t// out\n        /* \"#utility.yul\":7088:7236   */\n    tag_74:\n        /* \"#utility.yul\":7190:7201   */\n      0x00\n        /* \"#utility.yul\":7227:7230   */\n      dup2\n        /* \"#utility.yul\":7212:7230   */\n      swap1\n      pop\n        /* \"#utility.yul\":7088:7236   */\n      swap3\n      swap2\n      pop\n      pop\n      jump\t// out\n        /* \"#utility.yul\":7242:7456   */\n    tag_75:\n        /* \"#utility.yul\":7382:7448   */\n      0x3d60ad80600a3d3981f3363d3d373d3d3d363d73000000000000000000000000\n        /* \"#utility.yul\":7378:7379   */\n      0x00\n        /* \"#utility.yul\":7370:7376   */\n      dup3\n        /* \"#utility.yul\":7366:7380   */\n      add\n        /* \"#utility.yul\":7359:7449   */\n      mstore\n        /* \"#utility.yul\":7242:7456   */\n      pop\n      jump\t// out\n        /* \"#utility.yul\":7462:7864   */\n    tag_76:\n        /* \"#utility.yul\":7622:7625   */\n      0x00\n        /* \"#utility.yul\":7643:7728   */\n      tag_168\n        /* \"#utility.yul\":7725:7727   */\n      0x14\n        /* \"#utility.yul\":7720:7723   */\n      dup4\n        /* \"#utility.yul\":7643:7728   */\n      tag_74\n      jump\t// in\n    tag_168:\n        /* \"#utility.yul\":7636:7728   */\n      swap2\n      pop\n        /* \"#utility.yul\":7737:7830   */\n      tag_169\n        /* \"#utility.yul\":7826:7829   */\n      dup3\n        /* \"#utility.yul\":7737:7830   */\n      tag_75\n      jump\t// in\n    tag_169:\n        /* \"#utility.yul\":7855:7857   */\n      0x14\n        /* \"#utility.yul\":7850:7853   */\n      dup3\n        /* \"#utility.yul\":7846:7858   */\n      add\n        /* \"#utility.yul\":7839:7858   */\n      swap1\n      pop\n        /* \"#utility.yul\":7462:7864   */\n      swap2\n      swap1\n      pop\n      jump\t// out\n        /* \"#utility.yul\":7870:7964   */\n    tag_77:\n        /* \"#utility.yul\":7903:7911   */\n      0x00\n        /* \"#utility.yul\":7951:7956   */\n      dup2\n        /* \"#utility.yul\":7947:7949   */\n      0x60\n        /* \"#utility.yul\":7943:7957   */\n      shl\n        /* \"#utility.yul\":7922:7957   */\n      swap1\n      pop\n        /* \"#utility.yul\":7870:7964   */\n      swap2\n      swap1\n      pop\n      jump\t// out\n        /* \"#utility.yul\":7970:8064   */\n    tag_78:\n        /* \"#utility.yul\":8009:8016   */\n      0x00\n        /* \"#utility.yul\":8038:8058   */\n      tag_172\n        /* \"#utility.yul\":8052:8057   */\n      dup3\n        /* \"#utility.yul\":8038:8058   */\n      tag_77\n      jump\t// in\n    tag_172:\n        /* \"#utility.yul\":8027:8058   */\n      swap1\n      pop\n        /* \"#utility.yul\":7970:8064   */\n      swap2\n      swap1\n      pop\n      jump\t// out\n        /* \"#utility.yul\":8070:8170   */\n    tag_79:\n        /* \"#utility.yul\":8109:8116   */\n      0x00\n        /* \"#utility.yul\":8138:8164   */\n      tag_174\n        /* \"#utility.yul\":8158:8163   */\n      dup3\n        /* \"#utility.yul\":8138:8164   */\n      tag_78\n      jump\t// in\n    tag_174:\n        /* \"#utility.yul\":8127:8164   */\n      swap1\n      pop\n        /* \"#utility.yul\":8070:8170   */\n      swap2\n      swap1\n      pop\n      jump\t// out\n        /* \"#utility.yul\":8176:8333   */\n    tag_80:\n        /* \"#utility.yul\":8281:8326   */\n      tag_176\n        /* \"#utility.yul\":8301:8325   */\n      tag_177\n        /* \"#utility.yul\":8319:8324   */\n      dup3\n        /* \"#utility.yul\":8301:8325   */\n      tag_59\n      jump\t// in\n    tag_177:\n        /* \"#utility.yul\":8281:8326   */\n      tag_79\n      jump\t// in\n    tag_176:\n        /* \"#utility.yul\":8276:8279   */\n      dup3\n        /* \"#utility.yul\":8269:8327   */\n      mstore\n        /* \"#utility.yul\":8176:8333   */\n      pop\n      pop\n      jump\t// out\n        /* \"#utility.yul\":8339:8553   */\n    tag_81:\n        /* \"#utility.yul\":8479:8545   */\n      0x5af43d82803e903d91602b57fd5bf30000000000000000000000000000000000\n        /* \"#utility.yul\":8475:8476   */\n      0x00\n        /* \"#utility.yul\":8467:8473   */\n      dup3\n        /* \"#utility.yul\":8463:8477   */\n      add\n        /* \"#utility.yul\":8456:8546   */\n      mstore\n        /* \"#utility.yul\":8339:8553   */\n      pop\n      jump\t// out\n        /* \"#utility.yul\":8559:8961   */\n    tag_82:\n        /* \"#utility.yul\":8719:8722   */\n      0x00\n        /* \"#utility.yul\":8740:8825   */\n      tag_180\n        /* \"#utility.yul\":8822:8824   */\n      0x0f\n        /* \"#utility.yul\":8817:8820   */\n      dup4\n        /* \"#utility.yul\":8740:8825   */\n      tag_74\n      jump\t// in\n    tag_180:\n        /* \"#utility.yul\":8733:8825   */\n      swap2\n      pop\n        /* \"#utility.yul\":8834:8927   */\n      tag_181\n        /* \"#utility.yul\":8923:8926   */\n      dup3\n        /* \"#utility.yul\":8834:8927   */\n      tag_81\n      jump\t// in\n    tag_181:\n        /* \"#utility.yul\":8952:8954   */\n      0x0f\n        /* \"#utility.yul\":8947:8950   */\n      dup3\n        /* \"#utility.yul\":8943:8955   */\n      add\n        /* \"#utility.yul\":8936:8955   */\n      swap1\n      pop\n        /* \"#utility.yul\":8559:8961   */\n      swap2\n      swap1\n      pop\n      jump\t// out\n        /* \"#utility.yul\":8967:9065   */\n    tag_83:\n        /* \"#utility.yul\":9018:9024   */\n      0x00\n        /* \"#utility.yul\":9052:9057   */\n      dup2\n        /* \"#utility.yul\":9046:9058   */\n      mload\n        /* \"#utility.yul\":9036:9058   */\n      swap1\n      pop\n        /* \"#utility.yul\":8967:9065   */\n      swap2\n      swap1\n      pop\n      jump\t// out\n        /* \"#utility.yul\":9071:9317   */\n    tag_84:\n        /* \"#utility.yul\":9152:9153   */\n      0x00\n        /* \"#utility.yul\":9162:9275   */\n    tag_184:\n        /* \"#utility.yul\":9176:9182   */\n      dup4\n        /* \"#utility.yul\":9173:9174   */\n      dup2\n        /* \"#utility.yul\":9170:9183   */\n      lt\n        /* \"#utility.yul\":9162:9275   */\n      iszero\n      tag_186\n      jumpi\n        /* \"#utility.yul\":9261:9262   */\n      dup1\n        /* \"#utility.yul\":9256:9259   */\n      dup3\n        /* \"#utility.yul\":9252:9263   */\n      add\n        /* \"#utility.yul\":9246:9264   */\n      mload\n        /* \"#utility.yul\":9242:9243   */\n      dup2\n        /* \"#utility.yul\":9237:9240   */\n      dup5\n        /* \"#utility.yul\":9233:9244   */\n      add\n        /* \"#utility.yul\":9226:9265   */\n      mstore\n        /* \"#utility.yul\":9198:9200   */\n      0x20\n        /* \"#utility.yul\":9195:9196   */\n      dup2\n        /* \"#utility.yul\":9191:9201   */\n      add\n        /* \"#utility.yul\":9186:9201   */\n      swap1\n      pop\n        /* \"#utility.yul\":9162:9275   */\n      jump(tag_184)\n    tag_186:\n        /* \"#utility.yul\":9309:9310   */\n      0x00\n        /* \"#utility.yul\":9300:9306   */\n      dup5\n        /* \"#utility.yul\":9295:9298   */\n      dup5\n        /* \"#utility.yul\":9291:9307   */\n      add\n        /* \"#utility.yul\":9284:9311   */\n      mstore\n        /* \"#utility.yul\":9133:9317   */\n      pop\n        /* \"#utility.yul\":9071:9317   */\n      pop\n      pop\n      pop\n      jump\t// out\n        /* \"#utility.yul\":9323:9709   */\n    tag_85:\n        /* \"#utility.yul\":9427:9430   */\n      0x00\n        /* \"#utility.yul\":9455:9493   */\n      tag_188\n        /* \"#utility.yul\":9487:9492   */\n      dup3\n        /* \"#utility.yul\":9455:9493   */\n      tag_83\n      jump\t// in\n    tag_188:\n        /* \"#utility.yul\":9509:9597   */\n      tag_189\n        /* \"#utility.yul\":9590:9596   */\n      dup2\n        /* \"#utility.yul\":9585:9588   */\n      dup6\n        /* \"#utility.yul\":9509:9597   */\n      tag_70\n      jump\t// in\n    tag_189:\n        /* \"#utility.yul\":9502:9597   */\n      swap4\n      pop\n        /* \"#utility.yul\":9606:9671   */\n      tag_190\n        /* \"#utility.yul\":9664:9670   */\n      dup2\n        /* \"#utility.yul\":9659:9662   */\n      dup6\n        /* \"#utility.yul\":9652:9656   */\n      0x20\n        /* \"#utility.yul\":9645:9650   */\n      dup7\n        /* \"#utility.yul\":9641:9657   */\n      add\n        /* \"#utility.yul\":9606:9671   */\n      tag_84\n      jump\t// in\n    tag_190:\n        /* \"#utility.yul\":9696:9702   */\n      dup1\n        /* \"#utility.yul\":9691:9694   */\n      dup5\n        /* \"#utility.yul\":9687:9703   */\n      add\n        /* \"#utility.yul\":9680:9703   */\n      swap2\n      pop\n        /* \"#utility.yul\":9431:9709   */\n      pop\n        /* \"#utility.yul\":9323:9709   */\n      swap3\n      swap2\n      pop\n      pop\n      jump\t// out\n        /* \"#utility.yul\":9715:10659   */\n    tag_40:\n        /* \"#utility.yul\":10075:10078   */\n      0x00\n        /* \"#utility.yul\":10097:10245   */\n      tag_192\n        /* \"#utility.yul\":10241:10244   */\n      dup3\n        /* \"#utility.yul\":10097:10245   */\n      tag_76\n      jump\t// in\n    tag_192:\n        /* \"#utility.yul\":10090:10245   */\n      swap2\n      pop\n        /* \"#utility.yul\":10255:10330   */\n      tag_193\n        /* \"#utility.yul\":10326:10329   */\n      dup3\n        /* \"#utility.yul\":10317:10323   */\n      dup6\n        /* \"#utility.yul\":10255:10330   */\n      tag_80\n      jump\t// in\n    tag_193:\n        /* \"#utility.yul\":10355:10357   */\n      0x14\n        /* \"#utility.yul\":10350:10353   */\n      dup3\n        /* \"#utility.yul\":10346:10358   */\n      add\n        /* \"#utility.yul\":10339:10358   */\n      swap2\n      pop\n        /* \"#utility.yul\":10375:10523   */\n      tag_194\n        /* \"#utility.yul\":10519:10522   */\n      dup3\n        /* \"#utility.yul\":10375:10523   */\n      tag_82\n      jump\t// in\n    tag_194:\n        /* \"#utility.yul\":10368:10523   */\n      swap2\n      pop\n        /* \"#utility.yul\":10540:10633   */\n      tag_195\n        /* \"#utility.yul\":10629:10632   */\n      dup3\n        /* \"#utility.yul\":10620:10626   */\n      dup5\n        /* \"#utility.yul\":10540:10633   */\n      tag_85\n      jump\t// in\n    tag_195:\n        /* \"#utility.yul\":10533:10633   */\n      swap2\n      pop\n        /* \"#utility.yul\":10650:10653   */\n      dup2\n        /* \"#utility.yul\":10643:10653   */\n      swap1\n      pop\n        /* \"#utility.yul\":9715:10659   */\n      swap4\n      swap3\n      pop\n      pop\n      pop\n      jump\t// out\n        /* \"#utility.yul\":10665:10834   */\n    tag_86:\n        /* \"#utility.yul\":10749:10760   */\n      0x00\n        /* \"#utility.yul\":10783:10789   */\n      dup3\n        /* \"#utility.yul\":10778:10781   */\n      dup3\n        /* \"#utility.yul\":10771:10790   */\n      mstore\n        /* \"#utility.yul\":10823:10827   */\n      0x20\n        /* \"#utility.yul\":10818:10821   */\n      dup3\n        /* \"#utility.yul\":10814:10828   */\n      add\n        /* \"#utility.yul\":10799:10828   */\n      swap1\n      pop\n        /* \"#utility.yul\":10665:10834   */\n      swap3\n      swap2\n      pop\n      pop\n      jump\t// out\n        /* \"#utility.yul\":10840:11019   */\n    tag_87:\n        /* \"#utility.yul\":10980:11011   */\n      0x437265617465323a20696e73756666696369656e742062616c616e6365000000\n        /* \"#utility.yul\":10976:10977   */\n      0x00\n        /* \"#utility.yul\":10968:10974   */\n      dup3\n        /* \"#utility.yul\":10964:10978   */\n      add\n        /* \"#utility.yul\":10957:11012   */\n      mstore\n        /* \"#utility.yul\":10840:11019   */\n      pop\n      jump\t// out\n        /* \"#utility.yul\":11025:11391   */\n    tag_88:\n        /* \"#utility.yul\":11167:11170   */\n      0x00\n        /* \"#utility.yul\":11188:11255   */\n      tag_199\n        /* \"#utility.yul\":11252:11254   */\n      0x1d\n        /* \"#utility.yul\":11247:11250   */\n      dup4\n        /* \"#utility.yul\":11188:11255   */\n      tag_86\n      jump\t// in\n    tag_199:\n        /* \"#utility.yul\":11181:11255   */\n      swap2\n      pop\n        /* \"#utility.yul\":11264:11357   */\n      tag_200\n        /* \"#utility.yul\":11353:11356   */\n      dup3\n        /* \"#utility.yul\":11264:11357   */\n      tag_87\n      jump\t// in\n    tag_200:\n        /* \"#utility.yul\":11382:11384   */\n      0x20\n        /* \"#utility.yul\":11377:11380   */\n      dup3\n        /* \"#utility.yul\":11373:11385   */\n      add\n        /* \"#utility.yul\":11366:11385   */\n      swap1\n      pop\n        /* \"#utility.yul\":11025:11391   */\n      swap2\n      swap1\n      pop\n      jump\t// out\n        /* \"#utility.yul\":11397:11816   */\n    tag_47:\n        /* \"#utility.yul\":11563:11567   */\n      0x00\n        /* \"#utility.yul\":11601:11603   */\n      0x20\n        /* \"#utility.yul\":11590:11599   */\n      dup3\n        /* \"#utility.yul\":11586:11604   */\n      add\n        /* \"#utility.yul\":11578:11604   */\n      swap1\n      pop\n        /* \"#utility.yul\":11650:11659   */\n      dup2\n        /* \"#utility.yul\":11644:11648   */\n      dup2\n        /* \"#utility.yul\":11640:11660   */\n      sub\n        /* \"#utility.yul\":11636:11637   */\n      0x00\n        /* \"#utility.yul\":11625:11634   */\n      dup4\n        /* \"#utility.yul\":11621:11638   */\n      add\n        /* \"#utility.yul\":11614:11661   */\n      mstore\n        /* \"#utility.yul\":11678:11809   */\n      tag_202\n        /* \"#utility.yul\":11804:11808   */\n      dup2\n        /* \"#utility.yul\":11678:11809   */\n      tag_88\n      jump\t// in\n    tag_202:\n        /* \"#utility.yul\":11670:11809   */\n      swap1\n      pop\n        /* \"#utility.yul\":11397:11816   */\n      swap2\n      swap1\n      pop\n      jump\t// out\n        /* \"#utility.yul\":11822:12004   */\n    tag_89:\n        /* \"#utility.yul\":11962:11996   */\n      0x437265617465323a2062797465636f6465206c656e677468206973207a65726f\n        /* \"#utility.yul\":11958:11959   */\n      0x00\n        /* \"#utility.yul\":11950:11956   */\n      dup3\n        /* \"#utility.yul\":11946:11960   */\n      add\n        /* \"#utility.yul\":11939:11997   */\n      mstore\n        /* \"#utility.yul\":11822:12004   */\n      pop\n      jump\t// out\n        /* \"#utility.yul\":12010:12376   */\n    tag_90:\n        /* \"#utility.yul\":12152:12155   */\n      0x00\n        /* \"#utility.yul\":12173:12240   */\n      tag_205\n        /* \"#utility.yul\":12237:12239   */\n      0x20\n        /* \"#utility.yul\":12232:12235   */\n      dup4\n        /* \"#utility.yul\":12173:12240   */\n      tag_86\n      jump\t// in\n    tag_205:\n        /* \"#utility.yul\":12166:12240   */\n      swap2\n      pop\n        /* \"#utility.yul\":12249:12342   */\n      tag_206\n        /* \"#utility.yul\":12338:12341   */\n      dup3\n        /* \"#utility.yul\":12249:12342   */\n      tag_89\n      jump\t// in\n    tag_206:\n        /* \"#utility.yul\":12367:12369   */\n      0x20\n        /* \"#utility.yul\":12362:12365   */\n      dup3\n        /* \"#utility.yul\":12358:12370   */\n      add\n        /* \"#utility.yul\":12351:12370   */\n      swap1\n      pop\n        /* \"#utility.yul\":12010:12376   */\n      swap2\n      swap1\n      pop\n      jump\t// out\n        /* \"#utility.yul\":12382:12801   */\n    tag_50:\n        /* \"#utility.yul\":12548:12552   */\n      0x00\n        /* \"#utility.yul\":12586:12588   */\n      0x20\n        /* \"#utility.yul\":12575:12584   */\n      dup3\n        /* \"#utility.yul\":12571:12589   */\n      add\n        /* \"#utility.yul\":12563:12589   */\n      swap1\n      pop\n        /* \"#utility.yul\":12635:12644   */\n      dup2\n        /* \"#utility.yul\":12629:12633   */\n      dup2\n        /* \"#utility.yul\":12625:12645   */\n      sub\n        /* \"#utility.yul\":12621:12622   */\n      0x00\n        /* \"#utility.yul\":12610:12619   */\n      dup4\n        /* \"#utility.yul\":12606:12623   */\n      add\n        /* \"#utility.yul\":12599:12646   */\n      mstore\n        /* \"#utility.yul\":12663:12794   */\n      tag_208\n        /* \"#utility.yul\":12789:12793   */\n      dup2\n        /* \"#utility.yul\":12663:12794   */\n      tag_90\n      jump\t// in\n    tag_208:\n        /* \"#utility.yul\":12655:12794   */\n      swap1\n      pop\n        /* \"#utility.yul\":12382:12801   */\n      swap2\n      swap1\n      pop\n      jump\t// out\n        /* \"#utility.yul\":12807:12982   */\n    tag_91:\n        /* \"#utility.yul\":12947:12974   */\n      0x437265617465323a204661696c6564206f6e206465706c6f7900000000000000\n        /* \"#utility.yul\":12943:12944   */\n      0x00\n        /* \"#utility.yul\":12935:12941   */\n      dup3\n        /* \"#utility.yul\":12931:12945   */\n      add\n        /* \"#utility.yul\":12924:12975   */\n      mstore\n        /* \"#utility.yul\":12807:12982   */\n      pop\n      jump\t// out\n        /* \"#utility.yul\":12988:13354   */\n    tag_92:\n        /* \"#utility.yul\":13130:13133   */\n      0x00\n        /* \"#utility.yul\":13151:13218   */\n      tag_211\n        /* \"#utility.yul\":13215:13217   */\n      0x19\n        /* \"#utility.yul\":13210:13213   */\n      dup4\n        /* \"#utility.yul\":13151:13218   */\n      tag_86\n      jump\t// in\n    tag_211:\n        /* \"#utility.yul\":13144:13218   */\n      swap2\n      pop\n        /* \"#utility.yul\":13227:13320   */\n      tag_212\n        /* \"#utility.yul\":13316:13319   */\n      dup3\n        /* \"#utility.yul\":13227:13320   */\n      tag_91\n      jump\t// in\n    tag_212:\n        /* \"#utility.yul\":13345:13347   */\n      0x20\n        /* \"#utility.yul\":13340:13343   */\n      dup3\n        /* \"#utility.yul\":13336:13348   */\n      add\n        /* \"#utility.yul\":13329:13348   */\n      swap1\n      pop\n        /* \"#utility.yul\":12988:13354   */\n      swap2\n      swap1\n      pop\n      jump\t// out\n        /* \"#utility.yul\":13360:13779   */\n    tag_53:\n        /* \"#utility.yul\":13526:13530   */\n      0x00\n        /* \"#utility.yul\":13564:13566   */\n      0x20\n        /* \"#utility.yul\":13553:13562   */\n      dup3\n        /* \"#utility.yul\":13549:13567   */\n      add\n        /* \"#utility.yul\":13541:13567   */\n      swap1\n      pop\n        /* \"#utility.yul\":13613:13622   */\n      dup2\n        /* \"#utility.yul\":13607:13611   */\n      dup2\n        /* \"#utility.yul\":13603:13623   */\n      sub\n        /* \"#utility.yul\":13599:13600   */\n      0x00\n        /* \"#utility.yul\":13588:13597   */\n      dup4\n        /* \"#utility.yul\":13584:13601   */\n      add\n        /* \"#utility.yul\":13577:13624   */\n      mstore\n        /* \"#utility.yul\":13641:13772   */\n      tag_214\n        /* \"#utility.yul\":13767:13771   */\n      dup2\n        /* \"#utility.yul\":13641:13772   */\n      tag_92\n      jump\t// in\n    tag_214:\n        /* \"#utility.yul\":13633:13772   */\n      swap1\n      pop\n        /* \"#utility.yul\":13360:13779   */\n      swap2\n      swap1\n      pop\n      jump\t// out\n\n    auxdata: 0xa2646970667358221220dfba701d0883ae5c2a3e2bfd229a6aee5bc8663a14f6308a99b4458944abae4764736f6c63430008130033\n}\n",
				"bytecode": {
					"linkReferences": {},
					"object": "608060405234801561001057600080fd5b50610a52806100206000396000f3fe608060405234801561001057600080fd5b50600436106100365760003560e01c80635e9bc5361461003b578063da7323b31461006b575b600080fd5b61005560048036038101906100509190610472565b61009b565b60405161006291906104fc565b60405180910390f35b6100856004803603810190610080919061057c565b6100cd565b60405161009291906104fc565b60405180910390f35b6000806100ab8787878787610236565b8051906020012090506100c18360001b8261028a565b91505095945050505050565b6000806100dd8989898989610236565b905060006100f58660001b838051906020012061028a565b905060008173ffffffffffffffffffffffffffffffffffffffff163b1461012057809250505061022b565b61012f60008760001b8461029f565b9050600085859050146101e45760008173ffffffffffffffffffffffffffffffffffffffff16868660405161016592919061066a565b6000604051808303816000865af19150503d80600081146101a2576040519150601f19603f3d011682016040523d82523d6000602084013e6101a7565b606091505b50509050806101e2576040517f19b991a800000000000000000000000000000000000000000000000000000000815260040160405180910390fd5b505b7f07fba7bba1191da7ee1155dcfa0030701c9c9a9cc34a93b991fc6fd0c9268d8f818b8b8b8b8b60405161021d96959493929190610692565b60405180910390a180925050505b979650505050505050565b6060858286868660405160200161025094939291906106f3565b604051602081830303815290604052604051602001610270929190610889565b604051602081830303815290604052905095945050505050565b60006102978383306103a9565b905092915050565b6000834710156102e4576040517f08c379a00000000000000000000000000000000000000000000000000000000081526004016102db90610924565b60405180910390fd5b6000825103610328576040517f08c379a000000000000000000000000000000000000000000000000000000000815260040161031f90610990565b60405180910390fd5b8282516020840186f59050600073ffffffffffffffffffffffffffffffffffffffff168173ffffffffffffffffffffffffffffffffffffffff16036103a2576040517f08c379a0000000000000000000000000000000000000000000000000000000008152600401610399906109fc565b60405180910390fd5b9392505050565b6000604051836040820152846020820152828152600b810160ff815360558120925050509392505050565b600080fd5b600080fd5b600073ffffffffffffffffffffffffffffffffffffffff82169050919050565b6000610409826103de565b9050919050565b610419816103fe565b811461042457600080fd5b50565b60008135905061043681610410565b92915050565b6000819050919050565b61044f8161043c565b811461045a57600080fd5b50565b60008135905061046c81610446565b92915050565b600080600080600060a0868803121561048e5761048d6103d4565b5b600061049c88828901610427565b95505060206104ad8882890161045d565b94505060406104be88828901610427565b93505060606104cf8882890161045d565b92505060806104e08882890161045d565b9150509295509295909350565b6104f6816103fe565b82525050565b600060208201905061051160008301846104ed565b92915050565b600080fd5b600080fd5b600080fd5b60008083601f84011261053c5761053b610517565b5b8235905067ffffffffffffffff8111156105595761055861051c565b5b60208301915083600182028301111561057557610574610521565b5b9250929050565b600080600080600080600060c0888a03121561059b5761059a6103d4565b5b60006105a98a828b01610427565b97505060206105ba8a828b0161045d565b96505060406105cb8a828b01610427565b95505060606105dc8a828b0161045d565b94505060806105ed8a828b0161045d565b93505060a088013567ffffffffffffffff81111561060e5761060d6103d9565b5b61061a8a828b01610526565b925092505092959891949750929550565b600081905092915050565b82818337600083830152505050565b6000610651838561062b565b935061065e838584610636565b82840190509392505050565b6000610677828486610645565b91508190509392505050565b61068c8161043c565b82525050565b600060c0820190506106a760008301896104ed565b6106b460208301886104ed565b6106c16040830187610683565b6106ce60608301866104ed565b6106db6080830185610683565b6106e860a0830184610683565b979650505050505050565b60006080820190506107086000830187610683565b6107156020830186610683565b61072260408301856104ed565b61072f6060830184610683565b95945050505050565b600081905092915050565b7f3d60ad80600a3d3981f3363d3d373d3d3d363d73000000000000000000000000600082015250565b6000610779601483610738565b915061078482610743565b601482019050919050565b60008160601b9050919050565b60006107a78261078f565b9050919050565b60006107b98261079c565b9050919050565b6107d16107cc826103fe565b6107ae565b82525050565b7f5af43d82803e903d91602b57fd5bf30000000000000000000000000000000000600082015250565b600061080d600f83610738565b9150610818826107d7565b600f82019050919050565b600081519050919050565b60005b8381101561084c578082015181840152602081019050610831565b60008484015250505050565b600061086382610823565b61086d818561062b565b935061087d81856020860161082e565b80840191505092915050565b60006108948261076c565b91506108a082856107c0565b6014820191506108af82610800565b91506108bb8284610858565b91508190509392505050565b600082825260208201905092915050565b7f437265617465323a20696e73756666696369656e742062616c616e6365000000600082015250565b600061090e601d836108c7565b9150610919826108d8565b602082019050919050565b6000602082019050818103600083015261093d81610901565b9050919050565b7f437265617465323a2062797465636f6465206c656e677468206973207a65726f600082015250565b600061097a6020836108c7565b915061098582610944565b602082019050919050565b600060208201905081810360008301526109a98161096d565b9050919050565b7f437265617465323a204661696c6564206f6e206465706c6f7900000000000000600082015250565b60006109e66019836108c7565b91506109f1826109b0565b602082019050919050565b60006020820190508181036000830152610a15816109d9565b905091905056fea2646970667358221220dfba701d0883ae5c2a3e2bfd229a6aee5bc8663a14f6308a99b4458944abae4764736f6c63430008130033",
					"opcodes": "PUSH1 0x80 PUSH1 0x40 MSTORE CALLVALUE DUP1 ISZERO PUSH2 0x10 JUMPI PUSH1 0x0 DUP1 REVERT JUMPDEST POP PUSH2 0xA52 DUP1 PUSH2 0x20 PUSH1 0x0 CODECOPY PUSH1 0x0 RETURN INVALID PUSH1 0x80 PUSH1 0x40 MSTORE CALLVALUE DUP1 ISZERO PUSH2 0x10 JUMPI PUSH1 0x0 DUP1 REVERT JUMPDEST POP PUSH1 0x4 CALLDATASIZE LT PUSH2 0x36 JUMPI PUSH1 0x0 CALLDATALOAD PUSH1 0xE0 SHR DUP1 PUSH4 0x5E9BC536 EQ PUSH2 0x3B JUMPI DUP1 PUSH4 0xDA7323B3 EQ PUSH2 0x6B JUMPI JUMPDEST PUSH1 0x0 DUP1 REVERT JUMPDEST PUSH2 0x55 PUSH1 0x4 DUP1 CALLDATASIZE SUB DUP2 ADD SWAP1 PUSH2 0x50 SWAP2 SWAP1 PUSH2 0x472 JUMP JUMPDEST PUSH2 0x9B JUMP JUMPDEST PUSH1 0x40 MLOAD PUSH2 0x62 SWAP2 SWAP1 PUSH2 0x4FC JUMP JUMPDEST PUSH1 0x40 MLOAD DUP1 SWAP2 SUB SWAP1 RETURN JUMPDEST PUSH2 0x85 PUSH1 0x4 DUP1 CALLDATASIZE SUB DUP2 ADD SWAP1 PUSH2 0x80 SWAP2 SWAP1 PUSH2 0x57C JUMP JUMPDEST PUSH2 0xCD JUMP JUMPDEST PUSH1 0x40 MLOAD PUSH2 0x92 SWAP2 SWAP1 PUSH2 0x4FC JUMP JUMPDEST PUSH1 0x40 MLOAD DUP1 SWAP2 SUB SWAP1 RETURN JUMPDEST PUSH1 0x0 DUP1 PUSH2 0xAB DUP8 DUP8 DUP8 DUP8 DUP8 PUSH2 0x236 JUMP JUMPDEST DUP1 MLOAD SWAP1 PUSH1 0x20 ADD KECCAK256 SWAP1 POP PUSH2 0xC1 DUP4 PUSH1 0x0 SHL DUP3 PUSH2 0x28A JUMP JUMPDEST SWAP2 POP POP SWAP6 SWAP5 POP POP POP POP POP JUMP JUMPDEST PUSH1 0x0 DUP1 PUSH2 0xDD DUP10 DUP10 DUP10 DUP10 DUP10 PUSH2 0x236 JUMP JUMPDEST SWAP1 POP PUSH1 0x0 PUSH2 0xF5 DUP7 PUSH1 0x0 SHL DUP4 DUP1 MLOAD SWAP1 PUSH1 0x20 ADD KECCAK256 PUSH2 0x28A JUMP JUMPDEST SWAP1 POP PUSH1 0x0 DUP2 PUSH20 0xFFFFFFFFFFFFFFFFFFFFFFFFFFFFFFFFFFFFFFFF AND EXTCODESIZE EQ PUSH2 0x120 JUMPI DUP1 SWAP3 POP POP POP PUSH2 0x22B JUMP JUMPDEST PUSH2 0x12F PUSH1 0x0 DUP8 PUSH1 0x0 SHL DUP5 PUSH2 0x29F JUMP JUMPDEST SWAP1 POP PUSH1 0x0 DUP6 DUP6 SWAP1 POP EQ PUSH2 0x1E4 JUMPI PUSH1 0x0 DUP2 PUSH20 0xFFFFFFFFFFFFFFFFFFFFFFFFFFFFFFFFFFFFFFFF AND DUP7 DUP7 PUSH1 0x40 MLOAD PUSH2 0x165 SWAP3 SWAP2 SWAP1 PUSH2 0x66A JUMP JUMPDEST PUSH1 0x0 PUSH1 0x40 MLOAD DUP1 DUP4 SUB DUP2 PUSH1 0x0 DUP7 GAS CALL SWAP2 POP POP RETURNDATASIZE DUP1 PUSH1 0x0 DUP2 EQ PUSH2 0x1A2 JUMPI PUSH1 0x40 MLOAD SWAP2 POP PUSH1 0x1F NOT PUSH1 0x3F RETURNDATASIZE ADD AND DUP3 ADD PUSH1 0x40 MSTORE RETURNDATASIZE DUP3 MSTORE RETURNDATASIZE PUSH1 0x0 PUSH1 0x20 DUP5 ADD RETURNDATACOPY PUSH2 0x1A7 JUMP JUMPDEST PUSH1 0x60 SWAP2 POP JUMPDEST POP POP SWAP1 POP DUP1 PUSH2 0x1E2 JUMPI PUSH1 0x40 MLOAD PUSH32 0x19B991A800000000000000000000000000000000000000000000000000000000 DUP2 MSTORE PUSH1 0x4 ADD PUSH1 0x40 MLOAD DUP1 SWAP2 SUB SWAP1 REVERT JUMPDEST POP JUMPDEST PUSH32 0x7FBA7BBA1191DA7EE1155DCFA0030701C9C9A9CC34A93B991FC6FD0C9268D8F DUP2 DUP12 DUP12 DUP12 DUP12 DUP12 PUSH1 0x40 MLOAD PUSH2 0x21D SWAP7 SWAP6 SWAP5 SWAP4 SWAP3 SWAP2 SWAP1 PUSH2 0x692 JUMP JUMPDEST PUSH1 0x40 MLOAD DUP1 SWAP2 SUB SWAP1 LOG1 DUP1 SWAP3 POP POP POP JUMPDEST SWAP8 SWAP7 POP POP POP POP POP POP POP JUMP JUMPDEST PUSH1 0x60 DUP6 DUP3 DUP7 DUP7 DUP7 PUSH1 0x40 MLOAD PUSH1 0x20 ADD PUSH2 0x250 SWAP5 SWAP4 SWAP3 SWAP2 SWAP1 PUSH2 0x6F3 JUMP JUMPDEST PUSH1 0x40 MLOAD PUSH1 0x20 DUP2 DUP4 SUB SUB DUP2 MSTORE SWAP1 PUSH1 0x40 MSTORE PUSH1 0x40 MLOAD PUSH1 0x20 ADD PUSH2 0x270 SWAP3 SWAP2 SWAP1 PUSH2 0x889 JUMP JUMPDEST PUSH1 0x40 MLOAD PUSH1 0x20 DUP2 DUP4 SUB SUB DUP2 MSTORE SWAP1 PUSH1 0x40 MSTORE SWAP1 POP SWAP6 SWAP5 POP POP POP POP POP JUMP JUMPDEST PUSH1 0x0 PUSH2 0x297 DUP4 DUP4 ADDRESS PUSH2 0x3A9 JUMP JUMPDEST SWAP1 POP SWAP3 SWAP2 POP POP JUMP JUMPDEST PUSH1 0x0 DUP4 SELFBALANCE LT ISZERO PUSH2 0x2E4 JUMPI PUSH1 0x40 MLOAD PUSH32 0x8C379A000000000000000000000000000000000000000000000000000000000 DUP2 MSTORE PUSH1 0x4 ADD PUSH2 0x2DB SWAP1 PUSH2 0x924 JUMP JUMPDEST PUSH1 0x40 MLOAD DUP1 SWAP2 SUB SWAP1 REVERT JUMPDEST PUSH1 0x0 DUP3 MLOAD SUB PUSH2 0x328 JUMPI PUSH1 0x40 MLOAD PUSH32 0x8C379A000000000000000000000000000000000000000000000000000000000 DUP2 MSTORE PUSH1 0x4 ADD PUSH2 0x31F SWAP1 PUSH2 0x990 JUMP JUMPDEST PUSH1 0x40 MLOAD DUP1 SWAP2 SUB SWAP1 REVERT JUMPDEST DUP3 DUP3 MLOAD PUSH1 0x20 DUP5 ADD DUP7 CREATE2 SWAP1 POP PUSH1 0x0 PUSH20 0xFFFFFFFFFFFFFFFFFFFFFFFFFFFFFFFFFFFFFFFF AND DUP2 PUSH20 0xFFFFFFFFFFFFFFFFFFFFFFFFFFFFFFFFFFFFFFFF AND SUB PUSH2 0x3A2 JUMPI PUSH1 0x40 MLOAD PUSH32 0x8C379A000000000000000000000000000000000000000000000000000000000 DUP2 MSTORE PUSH1 0x4 ADD PUSH2 0x399 SWAP1 PUSH2 0x9FC JUMP JUMPDEST PUSH1 0x40 MLOAD DUP1 SWAP2 SUB SWAP1 REVERT JUMPDEST SWAP4 SWAP3 POP POP POP JUMP JUMPDEST PUSH1 0x0 PUSH1 0x40 MLOAD DUP4 PUSH1 0x40 DUP3 ADD MSTORE DUP5 PUSH1 0x20 DUP3 ADD MSTORE DUP3 DUP2 MSTORE PUSH1 0xB DUP2 ADD PUSH1 0xFF DUP2 MSTORE8 PUSH1 0x55 DUP2 KECCAK256 SWAP3 POP POP POP SWAP4 SWAP3 POP POP POP JUMP JUMPDEST PUSH1 0x0 DUP1 REVERT JUMPDEST PUSH1 0x0 DUP1 REVERT JUMPDEST PUSH1 0x0 PUSH20 0xFFFFFFFFFFFFFFFFFFFFFFFFFFFFFFFFFFFFFFFF DUP3 AND SWAP1 POP SWAP2 SWAP1 POP JUMP JUMPDEST PUSH1 0x0 PUSH2 0x409 DUP3 PUSH2 0x3DE JUMP JUMPDEST SWAP1 POP SWAP2 SWAP1 POP JUMP JUMPDEST PUSH2 0x419 DUP2 PUSH2 0x3FE JUMP JUMPDEST DUP2 EQ PUSH2 0x424 JUMPI PUSH1 0x0 DUP1 REVERT JUMPDEST POP JUMP JUMPDEST PUSH1 0x0 DUP2 CALLDATALOAD SWAP1 POP PUSH2 0x436 DUP2 PUSH2 0x410 JUMP JUMPDEST SWAP3 SWAP2 POP POP JUMP JUMPDEST PUSH1 0x0 DUP2 SWAP1 POP SWAP2 SWAP1 POP JUMP JUMPDEST PUSH2 0x44F DUP2 PUSH2 0x43C JUMP JUMPDEST DUP2 EQ PUSH2 0x45A JUMPI PUSH1 0x0 DUP1 REVERT JUMPDEST POP JUMP JUMPDEST PUSH1 0x0 DUP2 CALLDATALOAD SWAP1 POP PUSH2 0x46C DUP2 PUSH2 0x446 JUMP JUMPDEST SWAP3 SWAP2 POP POP JUMP JUMPDEST PUSH1 0x0 DUP1 PUSH1 0x0 DUP1 PUSH1 0x0 PUSH1 0xA0 DUP7 DUP9 SUB SLT ISZERO PUSH2 0x48E JUMPI PUSH2 0x48D PUSH2 0x3D4 JUMP JUMPDEST JUMPDEST PUSH1 0x0 PUSH2 0x49C DUP9 DUP3 DUP10 ADD PUSH2 0x427 JUMP JUMPDEST SWAP6 POP POP PUSH1 0x20 PUSH2 0x4AD DUP9 DUP3 DUP10 ADD PUSH2 0x45D JUMP JUMPDEST SWAP5 POP POP PUSH1 0x40 PUSH2 0x4BE DUP9 DUP3 DUP10 ADD PUSH2 0x427 JUMP JUMPDEST SWAP4 POP POP PUSH1 0x60 PUSH2 0x4CF DUP9 DUP3 DUP10 ADD PUSH2 0x45D JUMP JUMPDEST SWAP3 POP POP PUSH1 0x80 PUSH2 0x4E0 DUP9 DUP3 DUP10 ADD PUSH2 0x45D JUMP JUMPDEST SWAP2 POP POP SWAP3 SWAP6 POP SWAP3 SWAP6 SWAP1 SWAP4 POP JUMP JUMPDEST PUSH2 0x4F6 DUP2 PUSH2 0x3FE JUMP JUMPDEST DUP3 MSTORE POP POP JUMP JUMPDEST PUSH1 0x0 PUSH1 0x20 DUP3 ADD SWAP1 POP PUSH2 0x511 PUSH1 0x0 DUP4 ADD DUP5 PUSH2 0x4ED JUMP JUMPDEST SWAP3 SWAP2 POP POP JUMP JUMPDEST PUSH1 0x0 DUP1 REVERT JUMPDEST PUSH1 0x0 DUP1 REVERT JUMPDEST PUSH1 0x0 DUP1 REVERT JUMPDEST PUSH1 0x0 DUP1 DUP4 PUSH1 0x1F DUP5 ADD SLT PUSH2 0x53C JUMPI PUSH2 0x53B PUSH2 0x517 JUMP JUMPDEST JUMPDEST DUP3 CALLDATALOAD SWAP1 POP PUSH8 0xFFFFFFFFFFFFFFFF DUP2 GT ISZERO PUSH2 0x559 JUMPI PUSH2 0x558 PUSH2 0x51C JUMP JUMPDEST JUMPDEST PUSH1 0x20 DUP4 ADD SWAP2 POP DUP4 PUSH1 0x1 DUP3 MUL DUP4 ADD GT ISZERO PUSH2 0x575 JUMPI PUSH2 0x574 PUSH2 0x521 JUMP JUMPDEST JUMPDEST SWAP3 POP SWAP3 SWAP1 POP JUMP JUMPDEST PUSH1 0x0 DUP1 PUSH1 0x0 DUP1 PUSH1 0x0 DUP1 PUSH1 0x0 PUSH1 0xC0 DUP9 DUP11 SUB SLT ISZERO PUSH2 0x59B JUMPI PUSH2 0x59A PUSH2 0x3D4 JUMP JUMPDEST JUMPDEST PUSH1 0x0 PUSH2 0x5A9 DUP11 DUP3 DUP12 ADD PUSH2 0x427 JUMP JUMPDEST SWAP8 POP POP PUSH1 0x20 PUSH2 0x5BA DUP11 DUP3 DUP12 ADD PUSH2 0x45D JUMP JUMPDEST SWAP7 POP POP PUSH1 0x40 PUSH2 0x5CB DUP11 DUP3 DUP12 ADD PUSH2 0x427 JUMP JUMPDEST SWAP6 POP POP PUSH1 0x60 PUSH2 0x5DC DUP11 DUP3 DUP12 ADD PUSH2 0x45D JUMP JUMPDEST SWAP5 POP POP PUSH1 0x80 PUSH2 0x5ED DUP11 DUP3 DUP12 ADD PUSH2 0x45D JUMP JUMPDEST SWAP4 POP POP PUSH1 0xA0 DUP9 ADD CALLDATALOAD PUSH8 0xFFFFFFFFFFFFFFFF DUP2 GT ISZERO PUSH2 0x60E JUMPI PUSH2 0x60D PUSH2 0x3D9 JUMP JUMPDEST JUMPDEST PUSH2 0x61A DUP11 DUP3 DUP12 ADD PUSH2 0x526 JUMP JUMPDEST SWAP3 POP SWAP3 POP POP SWAP3 SWAP6 SWAP9 SWAP2 SWAP5 SWAP8 POP SWAP3 SWAP6 POP JUMP JUMPDEST PUSH1 0x0 DUP2 SWAP1 POP SWAP3 SWAP2 POP POP JUMP JUMPDEST DUP3 DUP2 DUP4 CALLDATACOPY PUSH1 0x0 DUP4 DUP4 ADD MSTORE POP POP POP JUMP JUMPDEST PUSH1 0x0 PUSH2 0x651 DUP4 DUP6 PUSH2 0x62B JUMP JUMPDEST SWAP4 POP PUSH2 0x65E DUP4 DUP6 DUP5 PUSH2 0x636 JUMP JUMPDEST DUP3 DUP5 ADD SWAP1 POP SWAP4 SWAP3 POP POP POP JUMP JUMPDEST PUSH1 0x0 PUSH2 0x677 DUP3 DUP5 DUP7 PUSH2 0x645 JUMP JUMPDEST SWAP2 POP DUP2 SWAP1 POP SWAP4 SWAP3 POP POP POP JUMP JUMPDEST PUSH2 0x68C DUP2 PUSH2 0x43C JUMP JUMPDEST DUP3 MSTORE POP POP JUMP JUMPDEST PUSH1 0x0 PUSH1 0xC0 DUP3 ADD SWAP1 POP PUSH2 0x6A7 PUSH1 0x0 DUP4 ADD DUP10 PUSH2 0x4ED JUMP JUMPDEST PUSH2 0x6B4 PUSH1 0x20 DUP4 ADD DUP9 PUSH2 0x4ED JUMP JUMPDEST PUSH2 0x6C1 PUSH1 0x40 DUP4 ADD DUP8 PUSH2 0x683 JUMP JUMPDEST PUSH2 0x6CE PUSH1 0x60 DUP4 ADD DUP7 PUSH2 0x4ED JUMP JUMPDEST PUSH2 0x6DB PUSH1 0x80 DUP4 ADD DUP6 PUSH2 0x683 JUMP JUMPDEST PUSH2 0x6E8 PUSH1 0xA0 DUP4 ADD DUP5 PUSH2 0x683 JUMP JUMPDEST SWAP8 SWAP7 POP POP POP POP POP POP POP JUMP JUMPDEST PUSH1 0x0 PUSH1 0x80 DUP3 ADD SWAP1 POP PUSH2 0x708 PUSH1 0x0 DUP4 ADD DUP8 PUSH2 0x683 JUMP JUMPDEST PUSH2 0x715 PUSH1 0x20 DUP4 ADD DUP7 PUSH2 0x683 JUMP JUMPDEST PUSH2 0x722 PUSH1 0x40 DUP4 ADD DUP6 PUSH2 0x4ED JUMP JUMPDEST PUSH2 0x72F PUSH1 0x60 DUP4 ADD DUP5 PUSH2 0x683 JUMP JUMPDEST SWAP6 SWAP5 POP POP POP POP POP JUMP JUMPDEST PUSH1 0x0 DUP2 SWAP1 POP SWAP3 SWAP2 POP POP JUMP JUMPDEST PUSH32 0x3D60AD80600A3D3981F3363D3D373D3D3D363D73000000000000000000000000 PUSH1 0x0 DUP3 ADD MSTORE POP JUMP JUMPDEST PUSH1 0x0 PUSH2 0x779 PUSH1 0x14 DUP4 PUSH2 0x738 JUMP JUMPDEST SWAP2 POP PUSH2 0x784 DUP3 PUSH2 0x743 JUMP JUMPDEST PUSH1 0x14 DUP3 ADD SWAP1 POP SWAP2 SWAP1 POP JUMP JUMPDEST PUSH1 0x0 DUP2 PUSH1 0x60 SHL SWAP1 POP SWAP2 SWAP1 POP JUMP JUMPDEST PUSH1 0x0 PUSH2 0x7A7 DUP3 PUSH2 0x78F JUMP JUMPDEST SWAP1 POP SWAP2 SWAP1 POP JUMP JUMPDEST PUSH1 0x0 PUSH2 0x7B9 DUP3 PUSH2 0x79C JUMP JUMPDEST SWAP1 POP SWAP2 SWAP1 POP JUMP JUMPDEST PUSH2 0x7D1 PUSH2 0x7CC DUP3 PUSH2 0x3FE JUMP JUMPDEST PUSH2 0x7AE JUMP JUMPDEST DUP3 MSTORE POP POP JUMP JUMPDEST PUSH32 0x5AF43D82803E903D91602B57FD5BF30000000000000000000000000000000000 PUSH1 0x0 DUP3 ADD MSTORE POP JUMP JUMPDEST PUSH1 0x0 PUSH2 0x80D PUSH1 0xF DUP4 PUSH2 0x738 JUMP JUMPDEST SWAP2 POP PUSH2 0x818 DUP3 PUSH2 0x7D7 JUMP JUMPDEST PUSH1 0xF DUP3 ADD SWAP1 POP SWAP2 SWAP1 POP JUMP JUMPDEST PUSH1 0x0 DUP2 MLOAD SWAP1 POP SWAP2 SWAP1 POP JUMP JUMPDEST PUSH1 0x0 JUMPDEST DUP4 DUP2 LT ISZERO PUSH2 0x84C JUMPI DUP1 DUP3 ADD MLOAD DUP2 DUP5 ADD MSTORE PUSH1 0x20 DUP2 ADD SWAP1 POP PUSH2 0x831 JUMP JUMPDEST PUSH1 0x0 DUP5 DUP5 ADD MSTORE POP POP POP POP JUMP JUMPDEST PUSH1 0x0 PUSH2 0x863 DUP3 PUSH2 0x823 JUMP JUMPDEST PUSH2 0x86D DUP2 DUP6 PUSH2 0x62B JUMP JUMPDEST SWAP4 POP PUSH2 0x87D DUP2 DUP6 PUSH1 0x20 DUP7 ADD PUSH2 0x82E JUMP JUMPDEST DUP1 DUP5 ADD SWAP2 POP POP SWAP3 SWAP2 POP POP JUMP JUMPDEST PUSH1 0x0 PUSH2 0x894 DUP3 PUSH2 0x76C JUMP JUMPDEST SWAP2 POP PUSH2 0x8A0 DUP3 DUP6 PUSH2 0x7C0 JUMP JUMPDEST PUSH1 0x14 DUP3 ADD SWAP2 POP PUSH2 0x8AF DUP3 PUSH2 0x800 JUMP JUMPDEST SWAP2 POP PUSH2 0x8BB DUP3 DUP5 PUSH2 0x858 JUMP JUMPDEST SWAP2 POP DUP2 SWAP1 POP SWAP4 SWAP3 POP POP POP JUMP JUMPDEST PUSH1 0x0 DUP3 DUP3 MSTORE PUSH1 0x20 DUP3 ADD SWAP1 POP SWAP3 SWAP2 POP POP JUMP JUMPDEST PUSH32 0x437265617465323A20696E73756666696369656E742062616C616E6365000000 PUSH1 0x0 DUP3 ADD MSTORE POP JUMP JUMPDEST PUSH1 0x0 PUSH2 0x90E PUSH1 0x1D DUP4 PUSH2 0x8C7 JUMP JUMPDEST SWAP2 POP PUSH2 0x919 DUP3 PUSH2 0x8D8 JUMP JUMPDEST PUSH1 0x20 DUP3 ADD SWAP1 POP SWAP2 SWAP1 POP JUMP JUMPDEST PUSH1 0x0 PUSH1 0x20 DUP3 ADD SWAP1 POP DUP2 DUP2 SUB PUSH1 0x0 DUP4 ADD MSTORE PUSH2 0x93D DUP2 PUSH2 0x901 JUMP JUMPDEST SWAP1 POP SWAP2 SWAP1 POP JUMP JUMPDEST PUSH32 0x437265617465323A2062797465636F6465206C656E677468206973207A65726F PUSH1 0x0 DUP3 ADD MSTORE POP JUMP JUMPDEST PUSH1 0x0 PUSH2 0x97A PUSH1 0x20 DUP4 PUSH2 0x8C7 JUMP JUMPDEST SWAP2 POP PUSH2 0x985 DUP3 PUSH2 0x944 JUMP JUMPDEST PUSH1 0x20 DUP3 ADD SWAP1 POP SWAP2 SWAP1 POP JUMP JUMPDEST PUSH1 0x0 PUSH1 0x20 DUP3 ADD SWAP1 POP DUP2 DUP2 SUB PUSH1 0x0 DUP4 ADD MSTORE PUSH2 0x9A9 DUP2 PUSH2 0x96D JUMP JUMPDEST SWAP1 POP SWAP2 SWAP1 POP JUMP JUMPDEST PUSH32 0x437265617465323A204661696C6564206F6E206465706C6F7900000000000000 PUSH1 0x0 DUP3 ADD MSTORE POP JUMP JUMPDEST PUSH1 0x0 PUSH2 0x9E6 PUSH1 0x19 DUP4 PUSH2 0x8C7 JUMP JUMPDEST SWAP2 POP PUSH2 0x9F1 DUP3 PUSH2 0x9B0 JUMP JUMPDEST PUSH1 0x20 DUP3 ADD SWAP1 POP SWAP2 SWAP1 POP JUMP JUMPDEST PUSH1 0x0 PUSH1 0x20 DUP3 ADD SWAP1 POP DUP2 DUP2 SUB PUSH1 0x0 DUP4 ADD MSTORE PUSH2 0xA15 DUP2 PUSH2 0x9D9 JUMP JUMPDEST SWAP1 POP SWAP2 SWAP1 POP JUMP INVALID LOG2 PUSH5 0x6970667358 0x22 SLT KECCAK256 0xDF 0xBA PUSH17 0x1D0883AE5C2A3E2BFD229A6AEE5BC8663A EQ 0xF6 ADDRESS DUP11 SWAP10 0xB4 GASLIMIT DUP10 PREVRANDAO 0xAB 0xAE SELFBALANCE PUSH5 0x736F6C6343 STOP ADDMOD SGT STOP CALLER "
				},
				"gasEstimates": {
					"creation": {
						"codeDepositCost": "528400",
						"executionCost": "562",
						"totalCost": "528962"
					},
					"external": {
						"account(address,uint256,address,uint256,uint256)": "infinite",
						"createAccount(address,uint256,address,uint256,uint256,bytes)": "infinite"
					},
					"internal": {
						"_creationCode(address,uint256,address,uint256,uint256)": "infinite"
					}
				},
				"methodIdentifiers": {
					"account(address,uint256,address,uint256,uint256)": "5e9bc536",
					"createAccount(address,uint256,address,uint256,uint256,bytes)": "da7323b3"
				}
			},
			"storageLayout": {
				"storage": [],
				"types": null
			},
			"userdoc": {
				"kind": "user",
				"methods": {},
				"version": 1
			}
		}
	}
}