{
	"data": {
		"bytecode": {
			"linkReferences": {},
			"object": "608060405234801561001057600080fd5b50610a52806100206000396000f3fe608060405234801561001057600080fd5b50600436106100365760003560e01c80635e9bc5361461003b578063da7323b31461006b575b600080fd5b61005560048036038101906100509190610472565b61009b565b60405161006291906104fc565b60405180910390f35b6100856004803603810190610080919061057c565b6100cd565b60405161009291906104fc565b60405180910390f35b6000806100ab8787878787610236565b8051906020012090506100c18360001b8261028a565b91505095945050505050565b6000806100dd8989898989610236565b905060006100f58660001b838051906020012061028a565b905060008173ffffffffffffffffffffffffffffffffffffffff163b1461012057809250505061022b565b61012f60008760001b8461029f565b9050600085859050146101e45760008173ffffffffffffffffffffffffffffffffffffffff16868660405161016592919061066a565b6000604051808303816000865af19150503d80600081146101a2576040519150601f19603f3d011682016040523d82523d6000602084013e6101a7565b606091505b50509050806101e2576040517f19b991a800000000000000000000000000000000000000000000000000000000815260040160405180910390fd5b505b7f07fba7bba1191da7ee1155dcfa0030701c9c9a9cc34a93b991fc6fd0c9268d8f818b8b8b8b8b60405161021d96959493929190610692565b60405180910390a180925050505b979650505050505050565b6060858286868660405160200161025094939291906106f3565b604051602081830303815290604052604051602001610270929190610889565b604051602081830303815290604052905095945050505050565b60006102978383306103a9565b905092915050565b6000834710156102e4576040517f08c379a00000000000000000000000000000000000000000000000000000000081526004016102db90610924565b60405180910390fd5b6000825103610328576040517f08c379a000000000000000000000000000000000000000000000000000000000815260040161031f90610990565b60405180910390fd5b8282516020840186f59050600073ffffffffffffffffffffffffffffffffffffffff168173ffffffffffffffffffffffffffffffffffffffff16036103a2576040517f08c379a0000000000000000000000000000000000000000000000000000000008152600401610399906109fc565b60405180910390fd5b9392505050565b6000604051836040820152846020820152828152600b810160ff815360558120925050509392505050565b600080fd5b600080fd5b600073ffffffffffffffffffffffffffffffffffffffff82169050919050565b6000610409826103de565b9050919050565b610419816103fe565b811461042457600080fd5b50565b60008135905061043681610410565b92915050565b6000819050919050565b61044f8161043c565b811461045a57600080fd5b50565b60008135905061046c81610446565b92915050565b600080600080600060a0868803121561048e5761048d6103d4565b5b600061049c88828901610427565b95505060206104ad8882890161045d565b94505060406104be88828901610427565b93505060606104cf8882890161045d565b92505060806104e08882890161045d565b9150509295509295909350565b6104f6816103fe565b82525050565b600060208201905061051160008301846104ed565b92915050565b600080fd5b600080fd5b600080fd5b60008083601f84011261053c5761053b610517565b5b8235905067ffffffffffffffff8111156105595761055861051c565b5b60208301915083600182028301111561057557610574610521565b5b9250929050565b600080600080600080600060c0888a03121561059b5761059a6103d4565b5b60006105a98a828b01610427565b97505060206105ba8a828b0161045d565b96505060406105cb8a828b01610427565b95505060606105dc8a828b0161045d565b94505060806105ed8a828b0161045d565b93505060a088013567ffffffffffffffff81111561060e5761060d6103d9565b5b61061a8a828b01610526565b925092505092959891949750929550565b600081905092915050565b82818337600083830152505050565b6000610651838561062b565b935061065e838584610636565b82840190509392505050565b6000610677828486610645565b91508190509392505050565b61068c8161043c565b82525050565b600060c0820190506106a760008301896104ed565b6106b460208301886104ed565b6106c16040830187610683565b6106ce60608301866104ed565b6106db6080830185610683565b6106e860a0830184610683565b979650505050505050565b60006080820190506107086000830187610683565b6107156020830186610683565b61072260408301856104ed565b61072f6060830184610683565b95945050505050565b600081905092915050565b7f3d60ad80600a3d3981f3363d3d373d3d3d363d73000000000000000000000000600082015250565b6000610779601483610738565b915061078482610743565b601482019050919050565b60008160601b9050919050565b60006107a78261078f565b9050919050565b60006107b98261079c565b9050919050565b6107d16107cc826103fe565b6107ae565b82525050565b7f5af43d82803e903d91602b57fd5bf30000000000000000000000000000000000600082015250565b600061080d600f83610738565b9150610818826107d7565b600f82019050919050565b600081519050919050565b60005b8381101561084c578082015181840152602081019050610831565b60008484015250505050565b600061086382610823565b61086d818561062b565b935061087d81856020860161082e565b80840191505092915050565b60006108948261076c565b91506108a082856107c0565b6014820191506108af82610800565b91506108bb8284610858565b91508190509392505050565b600082825260208201905092915050565b7f437265617465323a20696e73756666696369656e742062616c616e6365000000600082015250565b600061090e601d836108c7565b9150610919826108d8565b602082019050919050565b6000602082019050818103600083015261093d81610901565b9050919050565b7f437265617465323a2062797465636f6465206c656e677468206973207a65726f600082015250565b600061097a6020836108c7565b915061098582610944565b602082019050919050565b600060208201905081810360008301526109a98161096d565b9050919050565b7f437265617465323a204661696c6564206f6e206465706c6f7900000000000000600082015250565b60006109e66019836108c7565b91506109f1826109b0565b602082019050919050565b60006020820190508181036000830152610a15816109d9565b905091905056fea2646970667358221220dfba701d0883ae5c2a3e2bfd229a6aee5bc8663a14f6308a99b4458944abae4764736f6c63430008130033",
			"opcodes": "PUSH1 0x80 PUSH1 0x40 MSTORE CALLVALUE DUP1 ISZERO PUSH2 0x10 JUMPI PUSH1 0x0 DUP1 REVERT JUMPDEST POP PUSH2 0xA52 DUP1 PUSH2 0x20 PUSH1 0x0 CODECOPY PUSH1 0x0 RETURN INVALID PUSH1 0x80 PUSH1 0x40 MSTORE CALLVALUE DUP1 ISZERO PUSH2 0x10 JUMPI PUSH1 0x0 DUP1 REVERT JUMPDEST POP PUSH1 0x4 CALLDATASIZE LT PUSH2 0x36 JUMPI PUSH1 0x0 CALLDATALOAD PUSH1 0xE0 SHR DUP1 PUSH4 0x5E9BC536 EQ PUSH2 0x3B JUMPI DUP1 PUSH4 0xDA7323B3 EQ PUSH2 0x6B JUMPI JUMPDEST PUSH1 0x0 DUP1 REVERT JUMPDEST PUSH2 0x55 PUSH1 0x4 DUP1 CALLDATASIZE SUB DUP2 ADD SWAP1 PUSH2 0x50 SWAP2 SWAP1 PUSH2 0x472 JUMP JUMPDEST PUSH2 0x9B JUMP JUMPDEST PUSH1 0x40 MLOAD PUSH2 0x62 SWAP2 SWAP1 PUSH2 0x4FC JUMP JUMPDEST PUSH1 0x40 MLOAD DUP1 SWAP2 SUB SWAP1 RETURN JUMPDEST PUSH2 0x85 PUSH1 0x4 DUP1 CALLDATASIZE SUB DUP2 ADD SWAP1 PUSH2 0x80 SWAP2 SWAP1 PUSH2 0x57C JUMP JUMPDEST PUSH2 0xCD JUMP JUMPDEST PUSH1 0x40 MLOAD PUSH2 0x92 SWAP2 SWAP1 PUSH2 0x4FC JUMP JUMPDEST PUSH1 0x40 MLOAD DUP1 SWAP2 SUB SWAP1 RETURN JUMPDEST PUSH1 0x0 DUP1 PUSH2 0xAB DUP8 DUP8 DUP8 DUP8 DUP8 PUSH2 0x236 JUMP JUMPDEST DUP1 MLOAD SWAP1 PUSH1 0x20 ADD KECCAK256 SWAP1 POP PUSH2 0xC1 DUP4 PUSH1 0x0 SHL DUP3 PUSH2 0x28A JUMP JUMPDEST SWAP2 POP POP SWAP6 SWAP5 POP POP POP POP POP JUMP JUMPDEST PUSH1 0x0 DUP1 PUSH2 0xDD DUP10 DUP10 DUP10 DUP10 DUP10 PUSH2 0x236 JUMP JUMPDEST SWAP1 POP PUSH1 0x0 PUSH2 0xF5 DUP7 PUSH1 0x0 SHL DUP4 DUP1 MLOAD SWAP1 PUSH1 0x20 ADD KECCAK256 PUSH2 0x28A JUMP JUMPDEST SWAP1 POP PUSH1 0x0 DUP2 PUSH20 0xFFFFFFFFFFFFFFFFFFFFFFFFFFFFFFFFFFFFFFFF AND EXTCODESIZE EQ PUSH2 0x120 JUMPI DUP1 SWAP3 POP POP POP PUSH2 0x22B JUMP JUMPDEST PUSH2 0x12F PUSH1 0x0 DUP8 PUSH1 0x0 SHL DUP5 PUSH2 0x29F JUMP JUMPDEST SWAP1 POP PUSH1 0x0 DUP6 DUP6 SWAP1 POP EQ PUSH2 0x1E4 JUMPI PUSH1 0x0 DUP2 PUSH20 0xFFFFFFFFFFFFFFFFFFFFFFFFFFFFFFFFFFFFFFFF AND DUP7 DUP7 PUSH1 0x40 MLOAD PUSH2 0x165 SWAP3 SWAP2 SWAP1 PUSH2 0x66A JUMP JUMPDEST PUSH1 0x0 PUSH1 0x40 MLOAD DUP1 DUP4 SUB DUP2 PUSH1 0x0 DUP7 GAS CALL SWAP2 POP POP RETURNDATASIZE DUP1 PUSH1 0x0 DUP2 EQ PUSH2 0x1A2 JUMPI PUSH1 0x40 MLOAD SWAP2 POP PUSH1 0x1F NOT PUSH1 0x3F RETURNDATASIZE ADD AND DUP3 ADD PUSH1 0x40 MSTORE RETURNDATASIZE DUP3 MSTORE RETURNDATASIZE PUSH1 0x0 PUSH1 0x20 DUP5 ADD RETURNDATACOPY PUSH2 0x1A7 JUMP JUMPDEST PUSH1 0x60 SWAP2 POP JUMPDEST POP POP SWAP1 POP DUP1 PUSH2 0x1E2 JUMPI PUSH1 0x40 MLOAD PUSH32 0x19B991A800000000000000000000000000000000000000000000000000000000 DUP2 MSTORE PUSH1 0x4 ADD PUSH1 0x40 MLOAD DUP1 SWAP2 SUB SWAP1 REVERT JUMPDEST POP JUMPDEST PUSH32 0x7FBA7BBA1191DA7EE1155DCFA0030701C9C9A9CC34A93B991FC6FD0C9268D8F DUP2 DUP12 DUP12 DUP12 DUP12 DUP12 PUSH1 0x40 MLOAD PUSH2 0x21D SWAP7 SWAP6 SWAP5 SWAP4 SWAP3 SWAP2 SWAP1 PUSH2 0x692 JUMP JUMPDEST PUSH1 0x40 MLOAD DUP1 SWAP2 SUB SWAP1 LOG1 DUP1 SWAP3 POP POP POP JUMPDEST SWAP8 SWAP7 POP POP POP POP POP POP POP JUMP JUMPDEST PUSH1 0x60 DUP6 DUP3 DUP7 DUP7 DUP7 PUSH1 0x40 MLOAD PUSH1 0x20 ADD PUSH2 0x250 SWAP5 SWAP4 SWAP3 SWAP2 SWAP1 PUSH2 0x6F3 JUMP JUMPDEST PUSH1 0x40 MLOAD PUSH1 0x20 DUP2 DUP4 SUB SUB DUP2 MSTORE SWAP1 PUSH1 0x40 MSTORE PUSH1 0x40 MLOAD PUSH1 0x20 ADD PUSH2 0x270 SWAP3 SWAP2 SWAP1 PUSH2 0x889 JUMP JUMPDEST PUSH1 0x40 MLOAD PUSH1 0x20 DUP2 DUP4 SUB SUB DUP2 MSTORE SWAP1 PUSH1 0x40 MSTORE SWAP1 POP SWAP6 SWAP5 POP POP POP POP POP JUMP JUMPDEST PUSH1 0x0 PUSH2 0x297 DUP4 DUP4 ADDRESS PUSH2 0x3A9 JUMP JUMPDEST SWAP1 POP SWAP3 SWAP2 POP POP JUMP JUMPDEST PUSH1 0x0 DUP4 SELFBALANCE LT ISZERO PUSH2 0x2E4 JUMPI PUSH1 0x40 MLOAD PUSH32 0x8C379A000000000000000000000000000000000000000000000000000000000 DUP2 MSTORE PUSH1 0x4 ADD PUSH2 0x2DB SWAP1 PUSH2 0x924 JUMP JUMPDEST PUSH1 0x40 MLOAD DUP1 SWAP2 SUB SWAP1 REVERT JUMPDEST PUSH1 0x0 DUP3 MLOAD SUB PUSH2 0x328 JUMPI PUSH1 0x40 MLOAD PUSH32 0x8C379A000000000000000000000000000000000000000000000000000000000 DUP2 MSTORE PUSH1 0x4 ADD PUSH2 0x31F SWAP1 PUSH2 0x990 JUMP JUMPDEST PUSH1 0x40 MLOAD DUP1 SWAP2 SUB SWAP1 REVERT JUMPDEST DUP3 DUP3 MLOAD PUSH1 0x20 DUP5 ADD DUP7 CREATE2 SWAP1 POP PUSH1 0x0 PUSH20 0xFFFFFFFFFFFFFFFFFFFFFFFFFFFFFFFFFFFFFFFF AND DUP2 PUSH20 0xFFFFFFFFFFFFFFFFFFFFFFFFFFFFFFFFFFFFFFFF AND SUB PUSH2 0x3A2 JUMPI PUSH1 0x40 MLOAD PUSH32 0x8C379A000000000000000000000000000000000000000000000000000000000 DUP2 MSTORE PUSH1 0x4 ADD PUSH2 0x399 SWAP1 PUSH2 0x9FC JUMP JUMPDEST PUSH1 0x40 MLOAD DUP1 SWAP2 SUB SWAP1 REVERT JUMPDEST SWAP4 SWAP3 POP POP POP JUMP JUMPDEST PUSH1 0x0 PUSH1 0x40 MLOAD DUP4 PUSH1 0x40 DUP3 ADD MSTORE DUP5 PUSH1 0x20 DUP3 ADD MSTORE DUP3 DUP2 MSTORE PUSH1 0xB DUP2 ADD PUSH1 0xFF DUP2 MSTORE8 PUSH1 0x55 DUP2 KECCAK256 SWAP3 POP POP POP SWAP4 SWAP3 POP POP POP JUMP JUMPDEST PUSH1 0x0 DUP1 REVERT JUMPDEST PUSH1 0x0 DUP1 REVERT JUMPDEST PUSH1 0x0 PUSH20 0xFFFFFFFFFFFFFFFFFFFFFFFFFFFFFFFFFFFFFFFF DUP3 AND SWAP1 POP SWAP2 SWAP1 POP JUMP JUMPDEST PUSH1 0x0 PUSH2 0x409 DUP3 PUSH2 0x3DE JUMP JUMPDEST SWAP1 POP SWAP2 SWAP1 POP JUMP JUMPDEST PUSH2 0x419 DUP2 PUSH2 0x3FE JUMP JUMPDEST DUP2 EQ PUSH2 0x424 JUMPI PUSH1 0x0 DUP1 REVERT JUMPDEST POP JUMP JUMPDEST PUSH1 0x0 DUP2 CALLDATALOAD SWAP1 POP PUSH2 0x436 DUP2 PUSH2 0x410 JUMP JUMPDEST SWAP3 SWAP2 POP POP JUMP JUMPDEST PUSH1 0x0 DUP2 SWAP1 POP SWAP2 SWAP1 POP JUMP JUMPDEST PUSH2 0x44F DUP2 PUSH2 0x43C JUMP JUMPDEST DUP2 EQ PUSH2 0x45A JUMPI PUSH1 0x0 DUP1 REVERT JUMPDEST POP JUMP JUMPDEST PUSH1 0x0 DUP2 CALLDATALOAD SWAP1 POP PUSH2 0x46C DUP2 PUSH2 0x446 JUMP JUMPDEST SWAP3 SWAP2 POP POP JUMP JUMPDEST PUSH1 0x0 DUP1 PUSH1 0x0 DUP1 PUSH1 0x0 PUSH1 0xA0 DUP7 DUP9 SUB SLT ISZERO PUSH2 0x48E JUMPI PUSH2 0x48D PUSH2 0x3D4 JUMP JUMPDEST JUMPDEST PUSH1 0x0 PUSH2 0x49C DUP9 DUP3 DUP10 ADD PUSH2 0x427 JUMP JUMPDEST SWAP6 POP POP PUSH1 0x20 PUSH2 0x4AD DUP9 DUP3 DUP10 ADD PUSH2 0x45D JUMP JUMPDEST SWAP5 POP POP PUSH1 0x40 PUSH2 0x4BE DUP9 DUP3 DUP10 ADD PUSH2 0x427 JUMP JUMPDEST SWAP4 POP POP PUSH1 0x60 PUSH2 0x4CF DUP9 DUP3 DUP10 ADD PUSH2 0x45D JUMP JUMPDEST SWAP3 POP POP PUSH1 0x80 PUSH2 0x4E0 DUP9 DUP3 DUP10 ADD PUSH2 0x45D JUMP JUMPDEST SWAP2 POP POP SWAP3 SWAP6 POP SWAP3 SWAP6 SWAP1 SWAP4 POP JUMP JUMPDEST PUSH2 0x4F6 DUP2 PUSH2 0x3FE JUMP JUMPDEST DUP3 MSTORE POP POP JUMP JUMPDEST PUSH1 0x0 PUSH1 0x20 DUP3 ADD SWAP1 POP PUSH2 0x511 PUSH1 0x0 DUP4 ADD DUP5 PUSH2 0x4ED JUMP JUMPDEST SWAP3 SWAP2 POP POP JUMP JUMPDEST PUSH1 0x0 DUP1 REVERT JUMPDEST PUSH1 0x0 DUP1 REVERT JUMPDEST PUSH1 0x0 DUP1 REVERT JUMPDEST PUSH1 0x0 DUP1 DUP4 PUSH1 0x1F DUP5 ADD SLT PUSH2 0x53C JUMPI PUSH2 0x53B PUSH2 0x517 JUMP JUMPDEST JUMPDEST DUP3 CALLDATALOAD SWAP1 POP PUSH8 0xFFFFFFFFFFFFFFFF DUP2 GT ISZERO PUSH2 0x559 JUMPI PUSH2 0x558 PUSH2 0x51C JUMP JUMPDEST JUMPDEST PUSH1 0x20 DUP4 ADD SWAP2 POP DUP4 PUSH1 0x1 DUP3 MUL DUP4 ADD GT ISZERO PUSH2 0x575 JUMPI PUSH2 0x574 PUSH2 0x521 JUMP JUMPDEST JUMPDEST SWAP3 POP SWAP3 SWAP1 POP JUMP JUMPDEST PUSH1 0x0 DUP1 PUSH1 0x0 DUP1 PUSH1 0x0 DUP1 PUSH1 0x0 PUSH1 0xC0 DUP9 DUP11 SUB SLT ISZERO PUSH2 0x59B JUMPI PUSH2 0x59A PUSH2 0x3D4 JUMP JUMPDEST JUMPDEST PUSH1 0x0 PUSH2 0x5A9 DUP11 DUP3 DUP12 ADD PUSH2 0x427 JUMP JUMPDEST SWAP8 POP POP PUSH1 0x20 PUSH2 0x5BA DUP11 DUP3 DUP12 ADD PUSH2 0x45D JUMP JUMPDEST SWAP7 POP POP PUSH1 0x40 PUSH2 0x5CB DUP11 DUP3 DUP12 ADD PUSH2 0x427 JUMP JUMPDEST SWAP6 POP POP PUSH1 0x60 PUSH2 0x5DC DUP11 DUP3 DUP12 ADD PUSH2 0x45D JUMP JUMPDEST SWAP5 POP POP PUSH1 0x80 PUSH2 0x5ED DUP11 DUP3 DUP12 ADD PUSH2 0x45D JUMP JUMPDEST SWAP4 POP POP PUSH1 0xA0 DUP9 ADD CALLDATALOAD PUSH8 0xFFFFFFFFFFFFFFFF DUP2 GT ISZERO PUSH2 0x60E JUMPI PUSH2 0x60D PUSH2 0x3D9 JUMP JUMPDEST JUMPDEST PUSH2 0x61A DUP11 DUP3 DUP12 ADD PUSH2 0x526 JUMP JUMPDEST SWAP3 POP SWAP3 POP POP SWAP3 SWAP6 SWAP9 SWAP2 SWAP5 SWAP8 POP SWAP3 SWAP6 POP JUMP JUMPDEST PUSH1 0x0 DUP2 SWAP1 POP SWAP3 SWAP2 POP POP JUMP JUMPDEST DUP3 DUP2 DUP4 CALLDATACOPY PUSH1 0x0 DUP4 DUP4 ADD MSTORE POP POP POP JUMP JUMPDEST PUSH1 0x0 PUSH2 0x651 DUP4 DUP6 PUSH2 0x62B JUMP JUMPDEST SWAP4 POP PUSH2 0x65E DUP4 DUP6 DUP5 PUSH2 0x636 JUMP JUMPDEST DUP3 DUP5 ADD SWAP1 POP SWAP4 SWAP3 POP POP POP JUMP JUMPDEST PUSH1 0x0 PUSH2 0x677 DUP3 DUP5 DUP7 PUSH2 0x645 JUMP JUMPDEST SWAP2 POP DUP2 SWAP1 POP SWAP4 SWAP3 POP POP POP JUMP JUMPDEST PUSH2 0x68C DUP2 PUSH2 0x43C JUMP JUMPDEST DUP3 MSTORE POP POP JUMP JUMPDEST PUSH1 0x0 PUSH1 0xC0 DUP3 ADD SWAP1 POP PUSH2 0x6A7 PUSH1 0x0 DUP4 ADD DUP10 PUSH2 0x4ED JUMP JUMPDEST PUSH2 0x6B4 PUSH1 0x20 DUP4 ADD DUP9 PUSH2 0x4ED JUMP JUMPDEST PUSH2 0x6C1 PUSH1 0x40 DUP4 ADD DUP8 PUSH2 0x683 JUMP JUMPDEST PUSH2 0x6CE PUSH1 0x60 DUP4 ADD DUP7 PUSH2 0x4ED JUMP JUMPDEST PUSH2 0x6DB PUSH1 0x80 DUP4 ADD DUP6 PUSH2 0x683 JUMP JUMPDEST PUSH2 0x6E8 PUSH1 0xA0 DUP4 ADD DUP5 PUSH2 0x683 JUMP JUMPDEST SWAP8 SWAP7 POP POP POP POP POP POP POP JUMP JUMPDEST PUSH1 0x0 PUSH1 0x80 DUP3 ADD SWAP1 POP PUSH2 0x708 PUSH1 0x0 DUP4 ADD DUP8 PUSH2 0x683 JUMP JUMPDEST PUSH2 0x715 PUSH1 0x20 DUP4 ADD DUP7 PUSH2 0x683 JUMP JUMPDEST PUSH2 0x722 PUSH1 0x40 DUP4 ADD DUP6 PUSH2 0x4ED JUMP JUMPDEST PUSH2 0x72F PUSH1 0x60 DUP4 ADD DUP5 PUSH2 0x683 JUMP JUMPDEST SWAP6 SWAP5 POP POP POP POP POP JUMP JUMPDEST PUSH1 0x0 DUP2 SWAP1 POP SWAP3 SWAP2 POP POP JUMP JUMPDEST PUSH32 0x3D60AD80600A3D3981F3363D3D373D3D3D363D73000000000000000000000000 PUSH1 0x0 DUP3 ADD MSTORE POP JUMP JUMPDEST PUSH1 0x0 PUSH2 0x779 PUSH1 0x14 DUP4 PUSH2 0x738 JUMP JUMPDEST SWAP2 POP PUSH2 0x784 DUP3 PUSH2 0x743 JUMP JUMPDEST PUSH1 0x14 DUP3 ADD SWAP1 POP SWAP2 SWAP1 POP JUMP JUMPDEST PUSH1 0x0 DUP2 PUSH1 0x60 SHL SWAP1 POP SWAP2 SWAP1 POP JUMP JUMPDEST PUSH1 0x0 PUSH2 0x7A7 DUP3 PUSH2 0x78F JUMP JUMPDEST SWAP1 POP SWAP2 SWAP1 POP JUMP JUMPDEST PUSH1 0x0 PUSH2 0x7B9 DUP3 PUSH2 0x79C JUMP JUMPDEST SWAP1 POP SWAP2 SWAP1 POP JUMP JUMPDEST PUSH2 0x7D1 PUSH2 0x7CC DUP3 PUSH2 0x3FE JUMP JUMPDEST PUSH2 0x7AE JUMP JUMPDEST DUP3 MSTORE POP POP JUMP JUMPDEST PUSH32 0x5AF43D82803E903D91602B57FD5BF30000000000000000000000000000000000 PUSH1 0x0 DUP3 ADD MSTORE POP JUMP JUMPDEST PUSH1 0x0 PUSH2 0x80D PUSH1 0xF DUP4 PUSH2 0x738 JUMP JUMPDEST SWAP2 POP PUSH2 0x818 DUP3 PUSH2 0x7D7 JUMP JUMPDEST PUSH1 0xF DUP3 ADD SWAP1 POP SWAP2 SWAP1 POP JUMP JUMPDEST PUSH1 0x0 DUP2 MLOAD SWAP1 POP SWAP2 SWAP1 POP JUMP JUMPDEST PUSH1 0x0 JUMPDEST DUP4 DUP2 LT ISZERO PUSH2 0x84C JUMPI DUP1 DUP3 ADD MLOAD DUP2 DUP5 ADD MSTORE PUSH1 0x20 DUP2 ADD SWAP1 POP PUSH2 0x831 JUMP JUMPDEST PUSH1 0x0 DUP5 DUP5 ADD MSTORE POP POP POP POP JUMP JUMPDEST PUSH1 0x0 PUSH2 0x863 DUP3 PUSH2 0x823 JUMP JUMPDEST PUSH2 0x86D DUP2 DUP6 PUSH2 0x62B JUMP JUMPDEST SWAP4 POP PUSH2 0x87D DUP2 DUP6 PUSH1 0x20 DUP7 ADD PUSH2 0x82E JUMP JUMPDEST DUP1 DUP5 ADD SWAP2 POP POP SWAP3 SWAP2 POP POP JUMP JUMPDEST PUSH1 0x0 PUSH2 0x894 DUP3 PUSH2 0x76C JUMP JUMPDEST SWAP2 POP PUSH2 0x8A0 DUP3 DUP6 PUSH2 0x7C0 JUMP JUMPDEST PUSH1 0x14 DUP3 ADD SWAP2 POP PUSH2 0x8AF DUP3 PUSH2 0x800 JUMP JUMPDEST SWAP2 POP PUSH2 0x8BB DUP3 DUP5 PUSH2 0x858 JUMP JUMPDEST SWAP2 POP DUP2 SWAP1 POP SWAP4 SWAP3 POP POP POP JUMP JUMPDEST PUSH1 0x0 DUP3 DUP3 MSTORE PUSH1 0x20 DUP3 ADD SWAP1 POP SWAP3 SWAP2 POP POP JUMP JUMPDEST PUSH32 0x437265617465323A20696E73756666696369656E742062616C616E6365000000 PUSH1 0x0 DUP3 ADD MSTORE POP JUMP JUMPDEST PUSH1 0x0 PUSH2 0x90E PUSH1 0x1D DUP4 PUSH2 0x8C7 JUMP JUMPDEST SWAP2 POP PUSH2 0x919 DUP3 PUSH2 0x8D8 JUMP JUMPDEST PUSH1 0x20 DUP3 ADD SWAP1 POP SWAP2 SWAP1 POP JUMP JUMPDEST PUSH1 0x0 PUSH1 0x20 DUP3 ADD SWAP1 POP DUP2 DUP2 SUB PUSH1 0x0 DUP4 ADD MSTORE PUSH2 0x93D DUP2 PUSH2 0x901 JUMP JUMPDEST SWAP1 POP SWAP2 SWAP1 POP JUMP JUMPDEST PUSH32 0x437265617465323A2062797465636F6465206C656E677468206973207A65726F PUSH1 0x0 DUP3 ADD MSTORE POP JUMP JUMPDEST PUSH1 0x0 PUSH2 0x97A PUSH1 0x20 DUP4 PUSH2 0x8C7 JUMP JUMPDEST SWAP2 POP PUSH2 0x985 DUP3 PUSH2 0x944 JUMP JUMPDEST PUSH1 0x20 DUP3 ADD SWAP1 POP SWAP2 SWAP1 POP JUMP JUMPDEST PUSH1 0x0 PUSH1 0x20 DUP3 ADD SWAP1 POP DUP2 DUP2 SUB PUSH1 0x0 DUP4 ADD MSTORE PUSH2 0x9A9 DUP2 PUSH2 0x96D JUMP JUMPDEST SWAP1 POP SWAP2 SWAP1 POP JUMP JUMPDEST PUSH32 0x437265617465323A204661696C6564206F6E206465706C6F7900000000000000 PUSH1 0x0 DUP3 ADD MSTORE POP JUMP JUMPDEST PUSH1 0x0 PUSH2 0x9E6 PUSH1 0x19 DUP4 PUSH2 0x8C7 JUMP JUMPDEST SWAP2 POP PUSH2 0x9F1 DUP3 PUSH2 0x9B0 JUMP JUMPDEST PUSH1 0x20 DUP3 ADD SWAP1 POP SWAP2 SWAP1 POP JUMP JUMPDEST PUSH1 0x0 PUSH1 0x20 DUP3 ADD SWAP1 POP DUP2 DUP2 SUB PUSH1 0x0 DUP4 ADD MSTORE PUSH2 0xA15 DUP2 PUSH2 0x9D9 JUMP JUMPDEST SWAP1 POP SWAP2 SWAP1 POP JUMP INVALID LOG2 PUSH5 0x6970667358 0x22 SLT KECCAK256 0xDF 0xBA PUSH17 0x1D0883AE5C2A3E2BFD229A6AEE5BC8663A EQ 0xF6 ADDRESS DUP11 SWAP10 0xB4 GASLIMIT DUP10 PREVRANDAO 0xAB 0xAE SELFBALANCE PUSH5 0x736F6C6343 STOP ADDMOD SGT STOP CALLER "
		},
		"gasEstimates": {
			"creation": {
				"codeDepositCost": "528400",
				"executionCost": "562",
				"totalCost": "528962"
			},
			"external": {
				"account(address,uint256,address,uint256,uint256)": "infinite",
				"createAccount(address,uint256,address,uint256,uint256,bytes)": "infinite"
			},
			"internal": {
				"_creationCode(address,uint256,address,uint256,uint256)": "infinite"
			}
		},
		"methodIdentifiers": {
			"account(address,uint256,address,uint256,uint256)": "5e9bc536",
			"createAccount(address,uint256,address,uint256,uint256,bytes)": "da7323b3"
		}
	},
	"abi": [
		{
			"inputs": [],
			"name": "InitializationFailed",
			"type": "error"
		},
		{
			"anonymous": false,
			"inputs": [
				{
					"indexed": false,
					"internalType": "address",
					"name": "account",
					"type": "address"
				},
				{
					"indexed": false,
					"internalType": "address",
					"name": "implementation",
					"type": "address"
				},
				{
					"indexed": false,
					"internalType": "uint256",
					"name": "chainId",
					"type": "uint256"
				},
				{
					"indexed": false,
					"internalType": "address",
					"name": "tokenContract",
					"type": "address"
				},
				{
					"indexed": false,
					"internalType": "uint256",
					"name": "tokenId",
					"type": "uint256"
				},
				{
					"indexed": false,
					"internalType": "uint256",
					"name": "salt",
					"type": "uint256"
				}
			],
			"name": "AccountCreated",
			"type": "event"
		},
		{
			"inputs": [
				{
					"internalType": "address",
					"name": "implementation",
					"type": "address"
				},
				{
					"internalType": "uint256",
					"name": "chainId",
					"type": "uint256"
				},
				{
					"internalType": "address",
					"name": "tokenContract",
					"type": "address"
				},
				{
					"internalType": "uint256",
					"name": "tokenId",
					"type": "uint256"
				},
				{
					"internalType": "uint256",
					"name": "salt",
					"type": "uint256"
				}
			],
			"name": "account",
			"outputs": [
				{
					"internalType": "address",
					"name": "",
					"type": "address"
				}
			],
			"stateMutability": "view",
			"type": "function"
		},
		{
			"inputs": [
				{
					"internalType": "address",
					"name": "implementation",
					"type": "address"
				},
				{
					"internalType": "uint256",
					"name": "chainId",
					"type": "uint256"
				},
				{
					"internalType": "address",
					"name": "tokenContract",
					"type": "address"
				},
				{
					"internalType": "uint256",
					"name": "tokenId",
					"type": "uint256"
				},
				{
					"internalType": "uint256",
					"name": "salt",
					"type": "uint256"
				},
				{
					"internalType": "bytes",
					"name": "initData",
					"type": "bytes"
				}
			],
			"name": "createAccount",
			"outputs": [
				{
					"internalType": "address",
					"name": "",
					"type": "address"
				}
			],
			"stateMutability": "nonpayable",
			"type": "function"
		}
	]
}